{
  "contractName": "DelFiPriceWithOnchainData",
  "abi": [
    {
      "constant": true,
      "inputs": [],
      "name": "data",
      "outputs": [
        {
          "name": "",
          "type": "address"
        }
      ],
      "payable": false,
      "stateMutability": "view",
      "type": "function"
    },
    {
      "constant": true,
      "inputs": [
        {
          "name": "",
          "type": "uint256"
        }
      ],
      "name": "sources",
      "outputs": [
        {
          "name": "",
          "type": "address"
        }
      ],
      "payable": false,
      "stateMutability": "view",
      "type": "function"
    },
    {
      "constant": true,
      "inputs": [
        {
          "name": "",
          "type": "string"
        }
      ],
      "name": "prices",
      "outputs": [
        {
          "name": "",
          "type": "uint64"
        }
      ],
      "payable": false,
      "stateMutability": "view",
      "type": "function"
    },
    {
      "inputs": [
        {
          "name": "data_",
          "type": "address"
        },
        {
          "name": "sources_",
          "type": "address[]"
        },
        {
          "name": "onChainSources_",
          "type": "address[]"
        }
      ],
      "payable": false,
      "stateMutability": "nonpayable",
      "type": "constructor"
    },
    {
      "anonymous": false,
      "inputs": [
        {
          "indexed": false,
          "name": "symbol",
          "type": "string"
        },
        {
          "indexed": false,
          "name": "price",
          "type": "uint64"
        }
      ],
      "name": "Price",
      "type": "event"
    },
    {
      "anonymous": false,
      "inputs": [
        {
          "indexed": false,
          "name": "_s",
          "type": "string"
        },
        {
          "indexed": false,
          "name": "_n",
          "type": "uint256"
        },
        {
          "indexed": false,
          "name": "_d",
          "type": "bool"
        }
      ],
      "name": "Print",
      "type": "event"
    },
    {
      "constant": false,
      "inputs": [
        {
          "name": "_symbol",
          "type": "string"
        }
      ],
      "name": "getPrice",
      "outputs": [
        {
          "name": "",
          "type": "uint64"
        }
      ],
      "payable": false,
      "stateMutability": "nonpayable",
      "type": "function"
    },
    {
      "constant": false,
      "inputs": [
        {
          "name": "messages",
          "type": "bytes[]"
        },
        {
          "name": "signatures",
          "type": "bytes[]"
        },
        {
          "name": "symbols",
          "type": "string[]"
        }
      ],
      "name": "postPrices",
      "outputs": [],
      "payable": false,
      "stateMutability": "nonpayable",
      "type": "function"
    },
    {
      "constant": false,
      "inputs": [
        {
          "name": "symbol",
          "type": "string"
        },
        {
          "name": "sources_",
          "type": "address[]"
        }
      ],
      "name": "medianPrice",
      "outputs": [
        {
          "name": "median",
          "type": "uint64"
        }
      ],
      "payable": false,
      "stateMutability": "nonpayable",
      "type": "function"
    }
  ],
  "bytecode": "0x60806040523480156200001157600080fd5b5060405162001f0038038062001f00833981018060405262000037919081019062000246565b8282816000806101000a81548173ffffffffffffffffffffffffffffffffffffffff021916908373ffffffffffffffffffffffffffffffffffffffff160217905550806001908051906020019062000091929190620000b6565b5050508060029080519060200190620000ac929190620000b6565b50505050620003a1565b82805482825590600052602060002090810192821562000132579160200282015b82811115620001315782518260006101000a81548173ffffffffffffffffffffffffffffffffffffffff021916908373ffffffffffffffffffffffffffffffffffffffff16021790555091602001919060010190620000d7565b5b50905062000141919062000145565b5090565b6200018891905b808211156200018457600081816101000a81549073ffffffffffffffffffffffffffffffffffffffff0219169055506001016200014c565b5090565b90565b6000815190506200019c816200036d565b92915050565b600082601f830112620001b457600080fd5b8151620001cb620001c582620002fc565b620002ce565b91508181835260208401935060208101905083856020840282011115620001f157600080fd5b60005b838110156200022557816200020a88826200018b565b845260208401935060208301925050600181019050620001f4565b5050505092915050565b600081519050620002408162000387565b92915050565b6000806000606084860312156200025c57600080fd5b60006200026c868287016200022f565b935050602084015167ffffffffffffffff8111156200028a57600080fd5b6200029886828701620001a2565b925050604084015167ffffffffffffffff811115620002b657600080fd5b620002c486828701620001a2565b9150509250925092565b6000604051905081810181811067ffffffffffffffff82111715620002f257600080fd5b8060405250919050565b600067ffffffffffffffff8211156200031457600080fd5b602082029050602081019050919050565b600062000332826200034d565b9050919050565b6000620003468262000325565b9050919050565b600073ffffffffffffffffffffffffffffffffffffffff82169050919050565b620003788162000325565b81146200038457600080fd5b50565b620003928162000339565b81146200039e57600080fd5b50565b611b4f80620003b16000396000f3fe608060405234801561001057600080fd5b50600436106100625760003560e01c8063524f38891461006757806369a650b01461009757806373d4a13a146100c7578063a3663d37146100e5578063c3825f4b14610115578063ecc1e98414610145575b600080fd5b610081600480360361007c91908101906110d3565b610161565b60405161008e91906118d4565b60405180910390f35b6100b160048036036100ac9190810190611155565b61019d565b6040516100be91906118d4565b60405180910390f35b6100cf6107af565b6040516100dc9190611647565b60405180910390f35b6100ff60048036036100fa91908101906111c1565b6107d4565b60405161010c91906115c1565b60405180910390f35b61012f600480360361012a9190810190611092565b610810565b60405161013c91906118d4565b60405180910390f35b61015f600480360361015a9190810190610f9f565b61084d565b005b600060038260405161017391906115aa565b908152602001604051809103902060009054906101000a900467ffffffffffffffff169050919050565b6000808251116101e2576040517f08c379a00000000000000000000000000000000000000000000000000000000081526004016101d990611878565b60405180910390fd5b6000825190506060816040519080825280602002602001820160405280156102195781602001602082028038833980820191505090505b50905060008090505b82811015610324576000809054906101000a900473ffffffffffffffffffffffffffffffffffffffff1673ffffffffffffffffffffffffffffffffffffffff166376977a3a86838151811061027357fe5b6020026020010151886040518363ffffffff1660e01b81526004016102999291906115dc565b60206040518083038186803b1580156102b157600080fd5b505afa1580156102c5573d6000803e3d6000fd5b505050506040513d601f19601f820116820180604052506102e991908101906111ea565b8282815181106102f557fe5b602002602001019067ffffffffffffffff16908167ffffffffffffffff16815250508080600101915050610222565b50600080600060606002805490506040519080825280602002602001820160405280156103605781602001602082028038833980820191505090505b509050600080905060008090505b60028054905081101561057a576002818154811061038857fe5b9060005260206000200160009054906101000a900473ffffffffffffffffffffffffffffffffffffffff1673ffffffffffffffffffffffffffffffffffffffff1663544491268c6040518263ffffffff1660e01b81526004016103eb9190611662565b606060405180830381600087803b15801561040557600080fd5b505af1158015610419573d6000803e3d6000fd5b505050506040513d601f19601f8201168201806040525061043d9190810190611043565b8096508197508298505050507f7a1a8846f8eefc4d24c872928daa7653aa3daee7e34b44f309511496d6a1c230858760405161047a92919061181c565b60405180910390a17f7a1a8846f8eefc4d24c872928daa7653aa3daee7e34b44f309511496d6a1c2308460016040516104b49291906116b4565b60405180910390a17f7a1a8846f8eefc4d24c872928daa7653aa3daee7e34b44f309511496d6a1c2304260016040516104ee92919061172c565b60405180910390a1851561056d578483838151811061050957fe5b602002602001019067ffffffffffffffff16908167ffffffffffffffff168152505081806001019250507f7a1a8846f8eefc4d24c872928daa7653aa3daee7e34b44f309511496d6a1c23085876040516105649291906117e0565b60405180910390a15b808060010191505061036e565b507f7a1a8846f8eefc4d24c872928daa7653aa3daee7e34b44f309511496d6a1c2308760016040516105ad929190611898565b60405180910390a17f7a1a8846f8eefc4d24c872928daa7653aa3daee7e34b44f309511496d6a1c2308160016040516105e79291906117a4565b60405180910390a160608188016040519080825280602002602001820160405280156106225781602001602082028038833980820191505090505b50905060008090505b82890181101561077257888110156106d1577f7a1a8846f8eefc4d24c872928daa7653aa3daee7e34b44f309511496d6a1c23088828151811061066a57fe5b602002602001015160016040516106829291906116f0565b60405180910390a187818151811061069657fe5b60200260200101518282815181106106aa57fe5b602002602001019067ffffffffffffffff16908167ffffffffffffffff1681525050610765565b7f7a1a8846f8eefc4d24c872928daa7653aa3daee7e34b44f309511496d6a1c230848a83038151811061070057fe5b60200260200101516001604051610718929190611768565b60405180910390a1838982038151811061072e57fe5b602002602001015182828151811061074257fe5b602002602001019067ffffffffffffffff16908167ffffffffffffffff16815250505b808060010191505061062b565b50606061077e82610c0a565b90508160028a8161078b57fe5b048151811061079657fe5b6020026020010151995050505050505050505092915050565b6000809054906101000a900473ffffffffffffffffffffffffffffffffffffffff1681565b600181815481106107e157fe5b906000526020600020016000915054906101000a900473ffffffffffffffffffffffffffffffffffffffff1681565b6003818051602081018201805184825260208301602085012081835280955050505050506000915054906101000a900467ffffffffffffffff1681565b838390508686905014610895576040517f08c379a000000000000000000000000000000000000000000000000000000000815260040161088c90611858565b60405180910390fd5b60008090505b86869050811015610a27576000809054906101000a900473ffffffffffffffffffffffffffffffffffffffff1673ffffffffffffffffffffffffffffffffffffffff166338636e9a8888848181106108ef57fe5b905060200281018035600160200383360303811261090c57600080fd5b8083019250508135905060208201915067ffffffffffffffff81111561093157600080fd5b60018102360382131561094357600080fd5b88888681811061094f57fe5b905060200281018035600160200383360303811261096c57600080fd5b8083019250508135905060208201915067ffffffffffffffff81111561099157600080fd5b6001810236038213156109a357600080fd5b6040518563ffffffff1660e01b81526004016109c2949392919061160c565b600060405180830381600087803b1580156109dc57600080fd5b505af11580156109f0573d6000803e3d6000fd5b505050506040513d6000823e3d601f19601f82011682018060405250610a199190810190611114565b50808060010191505061089b565b5060008090505b82829050811015610c01576060838383818110610a4757fe5b9050602002810180356001602003833603038112610a6457600080fd5b8083019250508135905060208201915067ffffffffffffffff811115610a8957600080fd5b600181023603821315610a9b57600080fd5b8080601f016020809104026020016040519081016040528093929190818152602001838380828437600081840152601f19601f8201169050808301925050505050505090506000610b72826001805480602002602001604051908101604052809291908181526020018280548015610b6857602002820191906000526020600020905b8160009054906101000a900473ffffffffffffffffffffffffffffffffffffffff1673ffffffffffffffffffffffffffffffffffffffff1681526020019060010190808311610b1e575b505050505061019d565b905080600383604051610b8591906115aa565b908152602001604051809103902060006101000a81548167ffffffffffffffff021916908367ffffffffffffffff1602179055507fb2e815941d7128f92d462d01c0437043997866e1862dd7832f48bcd4018610378282604051610bea929190611684565b60405180910390a150508080600101915050610a2e565b50505050505050565b606060008251905060008090505b81811015610d195760006001820190505b82811015610d0b57848181518110610c3d57fe5b602002602001015167ffffffffffffffff16858381518110610c5b57fe5b602002602001015167ffffffffffffffff161115610cfe576000858381518110610c8157fe5b60200260200101519050858281518110610c9757fe5b6020026020010151868481518110610cab57fe5b602002602001019067ffffffffffffffff16908167ffffffffffffffff168152505080868381518110610cda57fe5b602002602001019067ffffffffffffffff16908167ffffffffffffffff1681525050505b8080600101915050610c29565b508080600101915050610c18565b5082915050919050565b600081359050610d3281611ab9565b92915050565b600082601f830112610d4957600080fd5b8135610d5c610d578261191c565b6118ef565b91508181835260208401935060208101905083856020840282011115610d8157600080fd5b60005b83811015610db15781610d978882610d23565b845260208401935060208301925050600181019050610d84565b5050505092915050565b60008083601f840112610dcd57600080fd5b8235905067ffffffffffffffff811115610de657600080fd5b602083019150836020820283011115610dfe57600080fd5b9250929050565b60008083601f840112610e1757600080fd5b8235905067ffffffffffffffff811115610e3057600080fd5b602083019150836020820283011115610e4857600080fd5b9250929050565b600081519050610e5e81611ad0565b92915050565b600082601f830112610e7557600080fd5b8135610e88610e8382611944565b6118ef565b91508082526020830160208301858383011115610ea457600080fd5b610eaf838284611a66565b50505092915050565b600082601f830112610ec957600080fd5b8135610edc610ed782611970565b6118ef565b91508082526020830160208301858383011115610ef857600080fd5b610f03838284611a66565b50505092915050565b600082601f830112610f1d57600080fd5b8151610f30610f2b82611970565b6118ef565b91508082526020830160208301858383011115610f4c57600080fd5b610f57838284611a75565b50505092915050565b600081359050610f6f81611ae7565b92915050565b600081519050610f8481611ae7565b92915050565b600081519050610f9981611afe565b92915050565b60008060008060008060608789031215610fb857600080fd5b600087013567ffffffffffffffff811115610fd257600080fd5b610fde89828a01610dbb565b9650965050602087013567ffffffffffffffff811115610ffd57600080fd5b61100989828a01610dbb565b9450945050604087013567ffffffffffffffff81111561102857600080fd5b61103489828a01610e05565b92509250509295509295509295565b60008060006060848603121561105857600080fd5b600061106686828701610e4f565b935050602061107786828701610f75565b925050604061108886828701610f75565b9150509250925092565b6000602082840312156110a457600080fd5b600082013567ffffffffffffffff8111156110be57600080fd5b6110ca84828501610e64565b91505092915050565b6000602082840312156110e557600080fd5b600082013567ffffffffffffffff8111156110ff57600080fd5b61110b84828501610eb8565b91505092915050565b60006020828403121561112657600080fd5b600082015167ffffffffffffffff81111561114057600080fd5b61114c84828501610f0c565b91505092915050565b6000806040838503121561116857600080fd5b600083013567ffffffffffffffff81111561118257600080fd5b61118e85828601610eb8565b925050602083013567ffffffffffffffff8111156111ab57600080fd5b6111b785828601610d38565b9150509250929050565b6000602082840312156111d357600080fd5b60006111e184828501610f60565b91505092915050565b6000602082840312156111fc57600080fd5b600061120a84828501610f8a565b91505092915050565b61121c816119d4565b82525050565b61122b816119e6565b82525050565b600061123d83856119a7565b935061124a838584611a66565b61125383611aa8565b840190509392505050565b61126781611a30565b82525050565b60006112788261199c565b61128281856119b8565b9350611292818560208601611a75565b61129b81611aa8565b840191505092915050565b60006112b18261199c565b6112bb81856119c9565b93506112cb818560208601611a75565b80840191505092915050565b60006112e46004836119b8565b91507f74696d65000000000000000000000000000000000000000000000000000000006000830152602082019050919050565b60006113246002836119b8565b91507f6f430000000000000000000000000000000000000000000000000000000000006000830152602082019050919050565b60006113646003836119b8565b91507f6e6f7700000000000000000000000000000000000000000000000000000000006000830152602082019050919050565b60006113a46008836119b8565b91507f6f6666436861696e0000000000000000000000000000000000000000000000006000830152602082019050919050565b60006113e46006836119b8565b91507f61667465723200000000000000000000000000000000000000000000000000006000830152602082019050919050565b60006114246007836119b8565b91507f6f6e636861696e000000000000000000000000000000000000000000000000006000830152602082019050919050565b60006114646008836119b8565b91507f6f6e636861696e310000000000000000000000000000000000000000000000006000830152602082019050919050565b60006114a46023836119b8565b91507f6d6573736167657320616e64207369676e617475726573206d7573742062652060008301527f313a3100000000000000000000000000000000000000000000000000000000006020830152604082019050919050565b600061150a601e836119b8565b91507f736f7572636573206c697374206d757374206e6f7420626520656d70747900006000830152602082019050919050565b600061154a6005836119b8565b91507f61667465720000000000000000000000000000000000000000000000000000006000830152602082019050919050565b61158681611a12565b82525050565b61159581611a54565b82525050565b6115a481611a1c565b82525050565b60006115b682846112a6565b915081905092915050565b60006020820190506115d66000830184611213565b92915050565b60006040820190506115f16000830185611213565b8181036020830152611603818461126d565b90509392505050565b60006040820190508181036000830152611627818688611231565b9050818103602083015261163c818486611231565b905095945050505050565b600060208201905061165c600083018461125e565b92915050565b6000602082019050818103600083015261167c818461126d565b905092915050565b6000604082019050818103600083015261169e818561126d565b90506116ad602083018461159b565b9392505050565b600060608201905081810360008301526116cd816112d7565b90506116dc602083018561157d565b6116e96040830184611222565b9392505050565b6000606082019050818103600083015261170981611317565b9050611718602083018561158c565b6117256040830184611222565b9392505050565b6000606082019050818103600083015261174581611357565b9050611754602083018561157d565b6117616040830184611222565b9392505050565b6000606082019050818103600083015261178181611397565b9050611790602083018561158c565b61179d6040830184611222565b9392505050565b600060608201905081810360008301526117bd816113d7565b90506117cc602083018561157d565b6117d96040830184611222565b9392505050565b600060608201905081810360008301526117f981611417565b9050611808602083018561157d565b6118156040830184611222565b9392505050565b6000606082019050818103600083015261183581611457565b9050611844602083018561157d565b6118516040830184611222565b9392505050565b6000602082019050818103600083015261187181611497565b9050919050565b60006020820190508181036000830152611891816114fd565b9050919050565b600060608201905081810360008301526118b18161153d565b90506118c0602083018561157d565b6118cd6040830184611222565b9392505050565b60006020820190506118e9600083018461159b565b92915050565b6000604051905081810181811067ffffffffffffffff8211171561191257600080fd5b8060405250919050565b600067ffffffffffffffff82111561193357600080fd5b602082029050602081019050919050565b600067ffffffffffffffff82111561195b57600080fd5b601f19601f8301169050602081019050919050565b600067ffffffffffffffff82111561198757600080fd5b601f19601f8301169050602081019050919050565b600081519050919050565b600082825260208201905092915050565b600082825260208201905092915050565b600081905092915050565b60006119df826119f2565b9050919050565b60008115159050919050565b600073ffffffffffffffffffffffffffffffffffffffff82169050919050565b6000819050919050565b600067ffffffffffffffff82169050919050565b6000611a3b82611a42565b9050919050565b6000611a4d826119f2565b9050919050565b6000611a5f82611a1c565b9050919050565b82818337600083830152505050565b60005b83811015611a93578082015181840152602081019050611a78565b83811115611aa2576000848401525b50505050565b6000601f19601f8301169050919050565b611ac2816119d4565b8114611acd57600080fd5b50565b611ad9816119e6565b8114611ae457600080fd5b50565b611af081611a12565b8114611afb57600080fd5b50565b611b0781611a1c565b8114611b1257600080fd5b5056fea265627a7a72305820b82e02e83ceddd65eb05d25cc7dca6a2bc5e7f6c5a1ba2131b36b045a8bd71f96c6578706572696d656e74616cf50037",
  "source": "pragma solidity ^0.5.0;\r\npragma experimental ABIEncoderV2;\r\n\r\nimport \"./OpenOraclePriceData.sol\";\r\nimport \"./OpenOracleView.sol\";\r\nimport \"./OpenOracleOnChainInterface.sol\";\r\n\r\n/**\r\n * @notice The DelFi Price Feed View\r\n * @author Compound Labs, Inc.\r\n */\r\ncontract DelFiPriceWithOnchainData is OpenOracleView {\r\n\r\n    /**\r\n     * @notice The list(array) of onChainSources contract addresses\r\n     */\r\n    address[] onChainSources;\r\n\r\n    /**\r\n     * @notice The mapping of medianized prices per symbol\r\n     */\r\n    mapping(string => uint64) public prices;\r\n\r\n    /**\r\n     * @notice The event emitted when a price is written to storage\r\n     */\r\n    event Price(string symbol, uint64 price);\r\n\r\n    /**\r\n     * @dev Specify the OpenOraclePriceData address, addresses for approved off-chain and on-chain data providers.\r\n     * @param data_ is the address for the OpenOraclePriceData contract\r\n     * @param sources_ is the list of authorized addresses to provide/sign off-chain data\r\n     * @param onChainSources_ is the list of authorized on-chain souces addresses \r\n     */\r\n    constructor(OpenOraclePriceData data_, address[] memory sources_,address[] memory onChainSources_) public OpenOracleView(data_, sources_) {\r\n        onChainSources = onChainSources_;\r\n    }\r\n\r\n    /**\r\n     * @notice Allows users to get median price data\r\n     * @param _symbol is the price symbol such as 'ETH/USD' etc...\r\n     */\r\n    function getPrice(string memory _symbol) public returns(uint64){\r\n        return prices[_symbol];\r\n    }\r\n\r\n    /**\r\n     * @notice Primary entry point to post and recalculate prices\r\n     * @dev We let anyone pay to post anything, but only sources count for prices.\r\n     * @param messages The messages to post to the oracle\r\n     * @param signatures The signatures for the corresponding messages\r\n     */\r\n    function postPrices(bytes[] calldata messages, bytes[] calldata signatures, string[] calldata symbols) external {\r\n        require(messages.length == signatures.length, \"messages and signatures must be 1:1\");\r\n\r\n        // Post the messages, whatever they are\r\n        for (uint i = 0; i < messages.length; i++) {\r\n            OpenOraclePriceData(address(data)).put(messages[i], signatures[i]);\r\n        }\r\n\r\n        // Recalculate the asset prices for the symbols to update\r\n        for (uint i = 0; i < symbols.length; i++) {\r\n            string memory symbol = symbols[i];\r\n\r\n            // Calculate the median price, write to storage, and emit an event\r\n            uint64 price = medianPrice(symbol, sources);\r\n            prices[symbol] = price;\r\n            emit Price(symbol, price);\r\n        }\r\n    }\r\n    event Print(string _s, uint _n, bool _d);\r\n\r\n    /**\r\n     * @notice Calculates the median price over any set of sources\r\n     * @param symbol The symbol to calculate the median price of\r\n     * @param sources_ The sources to use when calculating the median price\r\n     * @return median The median price over the set of sources\r\n     */\r\n    function medianPrice(string memory symbol, address[] memory sources_) public returns (uint64 median) {\r\n        require(sources_.length > 0, \"sources list must not be empty\");\r\n        uint N = sources_.length;\r\n        uint64[] memory postedPrices = new uint64[](N);\r\n        for (uint i = 0; i < N; i++) {\r\n            postedPrices[i] = OpenOraclePriceData(address(data)).getPrice(sources_[i], symbol);\r\n            //should you add check that timestamp is within a certain period?\r\n        }\r\n\r\n        bool _didGet;\r\n        uint _retrievedValue;\r\n        uint _timestampRetrieved;\r\n        uint64[] memory result = new uint64[](onChainSources.length);\r\n        uint tookCount = 0;\r\n        for(uint i=0; i< onChainSources.length; i++){\r\n            (_didGet,_retrievedValue,_timestampRetrieved) = OpenOracleOnChainInterface(address(onChainSources[i])).getCurrentValue(symbol);   \r\n                  emit Print(\"onchain1\",_retrievedValue, _didGet); \r\n                  emit Print(\"time\",_timestampRetrieved, true);\r\n                  emit Print(\"now\",now, true);\r\n            if(_didGet){//or a different threshold ( && _timestampRetrieved > now - 1 days .. or none like Compound)\r\n                result[tookCount] = uint64(_retrievedValue);\r\n                tookCount++;\r\n                emit Print(\"onchain\",_retrievedValue, _didGet); \r\n            }         \r\n        }\r\n        emit Print(\"after\",N, true); \r\n        emit Print(\"after2\",tookCount, true); \r\n        uint64[] memory allPrices = new uint64[](N + tookCount);\r\n        for (uint i=0; i < (N + tookCount); i++) {\r\n            if(i<N){\r\n                emit Print(\"oC\",postedPrices[i],true);\r\n                allPrices[i] = postedPrices[i];\r\n            }\r\n            else{\r\n                emit Print(\"offChain\",result[i-N],true);\r\n                allPrices[i] = result[i-N];\r\n            }\r\n        }\r\n        uint64[] memory sortedPrices = sort(allPrices);\r\n        return allPrices[N / 2];\r\n    }\r\n\r\n    /**\r\n     * @notice Helper to sort an array of uints\r\n     * @param array Array of integers to sort\r\n     * @return The sorted array of integers\r\n     */\r\n    function sort(uint64[] memory array) private pure returns (uint64[] memory) {\r\n        uint N = array.length;\r\n        for (uint i = 0; i < N; i++) {\r\n            for (uint j = i + 1; j < N; j++) {\r\n                if (array[i] > array[j]) {\r\n                    uint64 tmp = array[i];\r\n                    array[i] = array[j];\r\n                    array[j] = tmp;\r\n                }\r\n            }\r\n        }\r\n        return array;\r\n    }\r\n}",
  "sourcePath": "C:\\company\\code\\open-oracle\\contracts\\DelFiPriceWithOnchainData.sol",
  "compiler": {
    "name": "solc",
    "version": "0.5.8+commit.23d335f2.Emscripten.clang"
  },
  "schemaVersion": "3.0.16",
  "updatedAt": "2019-10-21T15:07:02.555Z",
  "devdoc": {
    "author": "Compound Labs, Inc.\r",
    "methods": {
      "constructor": {
        "details": "Specify the OpenOraclePriceData address, addresses for approved off-chain and on-chain data providers.\r",
        "params": {
          "data_": "is the address for the OpenOraclePriceData contract\r",
          "onChainSources_": "is the list of authorized on-chain souces addresses \r",
          "sources_": "is the list of authorized addresses to provide/sign off-chain data\r"
        }
      },
      "getPrice(string)": {
        "params": {
          "_symbol": "is the price symbol such as 'ETH/USD' etc...\r"
        }
      },
      "medianPrice(string,address[])": {
        "params": {
          "sources_": "The sources to use when calculating the median price\r",
          "symbol": "The symbol to calculate the median price of\r"
        },
        "return": "median The median price over the set of sources\r"
      },
      "postPrices(bytes[],bytes[],string[])": {
        "details": "We let anyone pay to post anything, but only sources count for prices.\r",
        "params": {
          "messages": "The messages to post to the oracle\r",
          "signatures": "The signatures for the corresponding messages\r"
        }
      }
    }
  },
  "userdoc": {
    "methods": {
      "getPrice(string)": {
        "notice": "Allows users to get median price data\r"
      },
      "medianPrice(string,address[])": {
        "notice": "Calculates the median price over any set of sources\r"
      },
      "postPrices(bytes[],bytes[],string[])": {
        "notice": "Primary entry point to post and recalculate prices\r"
      }
    },
    "notice": "The DelFi Price Feed View\r"
  }
}