{
  "contractName": "DelFiPriceWithOnchainData",
  "abi": [
    {
      "constant": true,
      "inputs": [],
      "name": "duration",
      "outputs": [
        {
          "name": "",
          "type": "uint256"
        }
      ],
      "payable": false,
      "stateMutability": "view",
      "type": "function"
    },
    {
      "constant": true,
      "inputs": [],
      "name": "data",
      "outputs": [
        {
          "name": "",
          "type": "address"
        }
      ],
      "payable": false,
      "stateMutability": "view",
      "type": "function"
    },
    {
      "constant": true,
      "inputs": [
        {
          "name": "",
          "type": "uint256"
        }
      ],
      "name": "sources",
      "outputs": [
        {
          "name": "",
          "type": "address"
        }
      ],
      "payable": false,
      "stateMutability": "view",
      "type": "function"
    },
    {
      "constant": true,
      "inputs": [
        {
          "name": "",
          "type": "string"
        }
      ],
      "name": "prices",
      "outputs": [
        {
          "name": "",
          "type": "uint64"
        }
      ],
      "payable": false,
      "stateMutability": "view",
      "type": "function"
    },
    {
      "inputs": [
        {
          "name": "data_",
          "type": "address"
        },
        {
          "name": "sources_",
          "type": "address[]"
        },
        {
          "name": "onChainSources_",
          "type": "address[]"
        },
        {
          "name": "_duration",
          "type": "uint256"
        }
      ],
      "payable": false,
      "stateMutability": "nonpayable",
      "type": "constructor"
    },
    {
      "anonymous": false,
      "inputs": [
        {
          "indexed": false,
          "name": "symbol",
          "type": "string"
        },
        {
          "indexed": false,
          "name": "price",
          "type": "uint64"
        }
      ],
      "name": "Price",
      "type": "event"
    },
    {
      "constant": true,
      "inputs": [
        {
          "name": "_symbol",
          "type": "string"
        }
      ],
      "name": "getPrice",
      "outputs": [
        {
          "name": "",
          "type": "uint64"
        }
      ],
      "payable": false,
      "stateMutability": "view",
      "type": "function"
    },
    {
      "constant": false,
      "inputs": [
        {
          "name": "messages",
          "type": "bytes[]"
        },
        {
          "name": "signatures",
          "type": "bytes[]"
        },
        {
          "name": "symbols",
          "type": "string[]"
        }
      ],
      "name": "postPrices",
      "outputs": [],
      "payable": false,
      "stateMutability": "nonpayable",
      "type": "function"
    },
    {
      "constant": false,
      "inputs": [
        {
          "name": "symbols",
          "type": "string[]"
        }
      ],
      "name": "postOnChainPrices",
      "outputs": [],
      "payable": false,
      "stateMutability": "nonpayable",
      "type": "function"
    },
    {
      "constant": false,
      "inputs": [
        {
          "name": "symbol",
          "type": "string"
        }
      ],
      "name": "medianPrice",
      "outputs": [
        {
          "name": "median",
          "type": "uint64"
        }
      ],
      "payable": false,
      "stateMutability": "nonpayable",
      "type": "function"
    },
    {
      "constant": true,
      "inputs": [
        {
          "name": "source",
          "type": "address"
        },
        {
          "name": "key",
          "type": "string"
        }
      ],
      "name": "getOnChain",
      "outputs": [
        {
          "name": "",
          "type": "uint64"
        },
        {
          "name": "",
          "type": "uint64"
        }
      ],
      "payable": false,
      "stateMutability": "view",
      "type": "function"
    },
    {
      "constant": true,
      "inputs": [
        {
          "name": "source",
          "type": "address"
        },
        {
          "name": "key",
          "type": "string"
        }
      ],
      "name": "getOnChainPrice",
      "outputs": [
        {
          "name": "",
          "type": "uint64"
        }
      ],
      "payable": false,
      "stateMutability": "view",
      "type": "function"
    }
  ],
  "bytecode": "0x60806040523480156200001157600080fd5b5060405162001df838038062001df8833981018060405262000037919081019062000265565b8383816000806101000a81548173ffffffffffffffffffffffffffffffffffffffff021916908373ffffffffffffffffffffffffffffffffffffffff160217905550806001908051906020019062000091929190620000be565b5050508160039080519060200190620000ac929190620000be565b508060048190555050505050620003fa565b8280548282559060005260206000209081019282156200013a579160200282015b82811115620001395782518260006101000a81548173ffffffffffffffffffffffffffffffffffffffff021916908373ffffffffffffffffffffffffffffffffffffffff16021790555091602001919060010190620000df565b5b5090506200014991906200014d565b5090565b6200019091905b808211156200018c57600081816101000a81549073ffffffffffffffffffffffffffffffffffffffff02191690555060010162000154565b5090565b90565b600081519050620001a481620003ac565b92915050565b600082601f830112620001bc57600080fd5b8151620001d3620001cd8262000331565b62000303565b91508181835260208401935060208101905083856020840282011115620001f957600080fd5b60005b838110156200022d578162000212888262000193565b845260208401935060208301925050600181019050620001fc565b5050505092915050565b6000815190506200024881620003c6565b92915050565b6000815190506200025f81620003e0565b92915050565b600080600080608085870312156200027c57600080fd5b60006200028c8782880162000237565b945050602085015167ffffffffffffffff811115620002aa57600080fd5b620002b887828801620001aa565b935050604085015167ffffffffffffffff811115620002d657600080fd5b620002e487828801620001aa565b9250506060620002f7878288016200024e565b91505092959194509250565b6000604051905081810181811067ffffffffffffffff821117156200032757600080fd5b8060405250919050565b600067ffffffffffffffff8211156200034957600080fd5b602082029050602081019050919050565b6000620003678262000382565b9050919050565b60006200037b826200035a565b9050919050565b600073ffffffffffffffffffffffffffffffffffffffff82169050919050565b6000819050919050565b620003b7816200035a565b8114620003c357600080fd5b50565b620003d1816200036e565b8114620003dd57600080fd5b50565b620003eb81620003a2565b8114620003f757600080fd5b50565b6119ee806200040a6000396000f3fe608060405234801561001057600080fd5b506004361061009e5760003560e01c806373d4a13a1161006657806373d4a13a14610182578063a3663d37146101a0578063c3825f4b146101d0578063cd99fb6714610200578063ecc1e9841461021c5761009e565b80630fb5a6b4146100a35780633a9ea047146100c15780634a34def4146100f1578063524f3889146101225780636ec6452914610152575b600080fd5b6100ab610238565b6040516100b89190611741565b60405180910390f35b6100db60048036036100d69190810190611198565b61023e565b6040516100e8919061175c565b60405180910390f35b61010b600480360361010691908101906111f0565b6102be565b604051610119929190611777565b60405180910390f35b61013c600480360361013791908101906113b9565b61035e565b604051610149919061175c565b60405180910390f35b61016c600480360361016791908101906113b9565b61039a565b604051610179919061175c565b60405180910390f35b61018a610700565b60405161019791906116b4565b60405180910390f35b6101ba60048036036101b5919081019061143b565b610725565b6040516101c7919061162e565b60405180910390f35b6101ea60048036036101e59190810190611378565b610761565b6040516101f7919061175c565b60405180910390f35b61021a600480360361021591908101906112e8565b61079e565b005b61023660048036036102319190810190611244565b61086c565b005b60045481565b6000600260008573ffffffffffffffffffffffffffffffffffffffff1673ffffffffffffffffffffffffffffffffffffffff168152602001908152602001600020838360405161028f9291906115fe565b908152602001604051809103902060000160089054906101000a900467ffffffffffffffff1690509392505050565b6000806000600260008673ffffffffffffffffffffffffffffffffffffffff1673ffffffffffffffffffffffffffffffffffffffff168152602001908152602001600020846040516103109190611617565b908152602001604051809103902090508060000160009054906101000a900467ffffffffffffffff168160000160089054906101000a900467ffffffffffffffff1692509250509250929050565b60006005826040516103709190611617565b908152602001604051809103902060009054906101000a900467ffffffffffffffff169050919050565b60006060600380549050600180549050016040519080825280602002602001820160405280156103d95781602001602082028038833980820191505090505b509050600080600080600090505b600380549050600180549050018110156105f157600180549050811015610545576000809054906101000a900473ffffffffffffffffffffffffffffffffffffffff1673ffffffffffffffffffffffffffffffffffffffff1663fc2525ab6001838154811061045257fe5b9060005260206000200160009054906101000a900473ffffffffffffffffffffffffffffffffffffffff16896040518363ffffffff1660e01b815260040161049b929190611649565b604080518083038186803b1580156104b257600080fd5b505afa1580156104c6573d6000803e3d6000fd5b505050506040513d601f19601f820116820180604052506104ea9190810190611464565b809450819550505060045442038467ffffffffffffffff161115610540578285838151811061051557fe5b602002602001019067ffffffffffffffff16908167ffffffffffffffff168152505081806001019250505b6105e4565b61058d600360018054905083038154811061055c57fe5b9060005260206000200160009054906101000a900473ffffffffffffffffffffffffffffffffffffffff16886102be565b809450819550505060045442038467ffffffffffffffff1611156105e357828583815181106105b857fe5b602002602001019067ffffffffffffffff16908167ffffffffffffffff168152505081806001019250505b5b80806001019150506103e7565b506060816040519080825280602002602001820160405280156106235781602001602082028038833980820191505090505b50905060008090505b828110156106835785818151811061064057fe5b602002602001015182828151811061065457fe5b602002602001019067ffffffffffffffff16908167ffffffffffffffff1681525050808060010191505061062c565b50606061068f82610bab565b905060018311156106c55780600284816106a557fe5b04815181106106b057fe5b602002602001015196505050505050506106fb565b60018314156106f057806000815181106106db57fe5b602002602001015196505050505050506106fb565b600096505050505050505b919050565b6000809054906101000a900473ffffffffffffffffffffffffffffffffffffffff1681565b6001818154811061073257fe5b906000526020600020016000915054906101000a900473ffffffffffffffffffffffffffffffffffffffff1681565b6005818051602081018201805184825260208301602085012081835280955050505050506000915054906101000a900467ffffffffffffffff1681565b60008090505b81518110156108685760608282815181106107bb57fe5b602002602001015190506107ce81610cc4565b60006107d98261039a565b9050806005836040516107ec9190611617565b908152602001604051809103902060006101000a81548167ffffffffffffffff021916908367ffffffffffffffff1602179055507fb2e815941d7128f92d462d01c0437043997866e1862dd7832f48bcd40186103782826040516108519291906116f1565b60405180910390a1505080806001019150506107a4565b5050565b8383905086869050146108b4576040517f08c379a00000000000000000000000000000000000000000000000000000000081526004016108ab90611721565b60405180910390fd5b60008090505b86869050811015610a46576000809054906101000a900473ffffffffffffffffffffffffffffffffffffffff1673ffffffffffffffffffffffffffffffffffffffff166338636e9a88888481811061090e57fe5b905060200281018035600160200383360303811261092b57600080fd5b8083019250508135905060208201915067ffffffffffffffff81111561095057600080fd5b60018102360382131561096257600080fd5b88888681811061096e57fe5b905060200281018035600160200383360303811261098b57600080fd5b8083019250508135905060208201915067ffffffffffffffff8111156109b057600080fd5b6001810236038213156109c257600080fd5b6040518563ffffffff1660e01b81526004016109e19493929190611679565b600060405180830381600087803b1580156109fb57600080fd5b505af1158015610a0f573d6000803e3d6000fd5b505050506040513d6000823e3d601f19601f82011682018060405250610a3891908101906113fa565b5080806001019150506108ba565b5060008090505b82829050811015610ba2576060838383818110610a6657fe5b9050602002810180356001602003833603038112610a8357600080fd5b8083019250508135905060208201915067ffffffffffffffff811115610aa857600080fd5b600181023603821315610aba57600080fd5b8080601f016020809104026020016040519081016040528093929190818152602001838380828437600081840152601f19601f820116905080830192505050505050509050610b0881610cc4565b6000610b138261039a565b905080600583604051610b269190611617565b908152602001604051809103902060006101000a81548167ffffffffffffffff021916908367ffffffffffffffff1602179055507fb2e815941d7128f92d462d01c0437043997866e1862dd7832f48bcd4018610378282604051610b8b9291906116f1565b60405180910390a150508080600101915050610a4d565b50505050505050565b606060008251905060008090505b81811015610cba5760006001820190505b82811015610cac57848181518110610bde57fe5b602002602001015167ffffffffffffffff16858381518110610bfc57fe5b602002602001015167ffffffffffffffff161115610c9f576000858381518110610c2257fe5b60200260200101519050858281518110610c3857fe5b6020026020010151868481518110610c4c57fe5b602002602001019067ffffffffffffffff16908167ffffffffffffffff168152505080868381518110610c7b57fe5b602002602001019067ffffffffffffffff16908167ffffffffffffffff1681525050505b8080600101915050610bca565b508080600101915050610bb9565b5082915050919050565b600080600080600090505b600380549050811015610eda5760038181548110610ce957fe5b9060005260206000200160009054906101000a900473ffffffffffffffffffffffffffffffffffffffff1673ffffffffffffffffffffffffffffffffffffffff166354449126866040518263ffffffff1660e01b8152600401610d4c91906116cf565b606060405180830381600087803b158015610d6657600080fd5b505af1158015610d7a573d6000803e3d6000fd5b505050506040513d601f19601f82011682018060405250610d9e9190810190611329565b8094508195508296505050508315610ecd5760405180604001604052808367ffffffffffffffff1681526020018467ffffffffffffffff168152506002600060038481548110610dea57fe5b9060005260206000200160009054906101000a900473ffffffffffffffffffffffffffffffffffffffff1673ffffffffffffffffffffffffffffffffffffffff1673ffffffffffffffffffffffffffffffffffffffff16815260200190815260200160002086604051610e5d9190611617565b908152602001604051809103902060008201518160000160006101000a81548167ffffffffffffffff021916908367ffffffffffffffff16021790555060208201518160000160086101000a81548167ffffffffffffffff021916908367ffffffffffffffff1602179055509050505b8080600101915050610ccf565b5050505050565b600081359050610ef081611958565b92915050565b60008083601f840112610f0857600080fd5b8235905067ffffffffffffffff811115610f2157600080fd5b602083019150836020820283011115610f3957600080fd5b9250929050565b60008083601f840112610f5257600080fd5b8235905067ffffffffffffffff811115610f6b57600080fd5b602083019150836020820283011115610f8357600080fd5b9250929050565b600082601f830112610f9b57600080fd5b8135610fae610fa9826117cd565b6117a0565b9150818183526020840193506020810190508360005b83811015610ff45781358601610fda888261105d565b845260208401935060208301925050600181019050610fc4565b5050505092915050565b60008151905061100d8161196f565b92915050565b60008083601f84011261102557600080fd5b8235905067ffffffffffffffff81111561103e57600080fd5b60208301915083600182028301111561105657600080fd5b9250929050565b600082601f83011261106e57600080fd5b813561108161107c826117f5565b6117a0565b9150808252602083016020830185838301111561109d57600080fd5b6110a8838284611905565b50505092915050565b600082601f8301126110c257600080fd5b81356110d56110d082611821565b6117a0565b915080825260208301602083018583830111156110f157600080fd5b6110fc838284611905565b50505092915050565b600082601f83011261111657600080fd5b815161112961112482611821565b6117a0565b9150808252602083016020830185838301111561114557600080fd5b611150838284611914565b50505092915050565b60008135905061116881611986565b92915050565b60008151905061117d81611986565b92915050565b6000815190506111928161199d565b92915050565b6000806000604084860312156111ad57600080fd5b60006111bb86828701610ee1565b935050602084013567ffffffffffffffff8111156111d857600080fd5b6111e486828701611013565b92509250509250925092565b6000806040838503121561120357600080fd5b600061121185828601610ee1565b925050602083013567ffffffffffffffff81111561122e57600080fd5b61123a858286016110b1565b9150509250929050565b6000806000806000806060878903121561125d57600080fd5b600087013567ffffffffffffffff81111561127757600080fd5b61128389828a01610ef6565b9650965050602087013567ffffffffffffffff8111156112a257600080fd5b6112ae89828a01610ef6565b9450945050604087013567ffffffffffffffff8111156112cd57600080fd5b6112d989828a01610f40565b92509250509295509295509295565b6000602082840312156112fa57600080fd5b600082013567ffffffffffffffff81111561131457600080fd5b61132084828501610f8a565b91505092915050565b60008060006060848603121561133e57600080fd5b600061134c86828701610ffe565b935050602061135d8682870161116e565b925050604061136e8682870161116e565b9150509250925092565b60006020828403121561138a57600080fd5b600082013567ffffffffffffffff8111156113a457600080fd5b6113b08482850161105d565b91505092915050565b6000602082840312156113cb57600080fd5b600082013567ffffffffffffffff8111156113e557600080fd5b6113f1848285016110b1565b91505092915050565b60006020828403121561140c57600080fd5b600082015167ffffffffffffffff81111561142657600080fd5b61143284828501611105565b91505092915050565b60006020828403121561144d57600080fd5b600061145b84828501611159565b91505092915050565b6000806040838503121561147757600080fd5b600061148585828601611183565b925050602061149685828601611183565b9150509250929050565b6114a981611885565b82525050565b60006114bb8385611858565b93506114c8838584611905565b6114d183611947565b840190509392505050565b6114e5816118e1565b82525050565b60006114f7838561187a565b9350611504838584611905565b82840190509392505050565b600061151b8261184d565b6115258185611869565b9350611535818560208601611914565b61153e81611947565b840191505092915050565b60006115548261184d565b61155e818561187a565b935061156e818560208601611914565b80840191505092915050565b6000611587602383611869565b91507f6d6573736167657320616e64207369676e617475726573206d7573742062652060008301527f313a3100000000000000000000000000000000000000000000000000000000006020830152604082019050919050565b6115e9816118c3565b82525050565b6115f8816118cd565b82525050565b600061160b8284866114eb565b91508190509392505050565b60006116238284611549565b915081905092915050565b600060208201905061164360008301846114a0565b92915050565b600060408201905061165e60008301856114a0565b81810360208301526116708184611510565b90509392505050565b600060408201905081810360008301526116948186886114af565b905081810360208301526116a98184866114af565b905095945050505050565b60006020820190506116c960008301846114dc565b92915050565b600060208201905081810360008301526116e98184611510565b905092915050565b6000604082019050818103600083015261170b8185611510565b905061171a60208301846115ef565b9392505050565b6000602082019050818103600083015261173a8161157a565b9050919050565b600060208201905061175660008301846115e0565b92915050565b600060208201905061177160008301846115ef565b92915050565b600060408201905061178c60008301856115ef565b61179960208301846115ef565b9392505050565b6000604051905081810181811067ffffffffffffffff821117156117c357600080fd5b8060405250919050565b600067ffffffffffffffff8211156117e457600080fd5b602082029050602081019050919050565b600067ffffffffffffffff82111561180c57600080fd5b601f19601f8301169050602081019050919050565b600067ffffffffffffffff82111561183857600080fd5b601f19601f8301169050602081019050919050565b600081519050919050565b600082825260208201905092915050565b600082825260208201905092915050565b600081905092915050565b6000611890826118a3565b9050919050565b60008115159050919050565b600073ffffffffffffffffffffffffffffffffffffffff82169050919050565b6000819050919050565b600067ffffffffffffffff82169050919050565b60006118ec826118f3565b9050919050565b60006118fe826118a3565b9050919050565b82818337600083830152505050565b60005b83811015611932578082015181840152602081019050611917565b83811115611941576000848401525b50505050565b6000601f19601f8301169050919050565b61196181611885565b811461196c57600080fd5b50565b61197881611897565b811461198357600080fd5b50565b61198f816118c3565b811461199a57600080fd5b50565b6119a6816118cd565b81146119b157600080fd5b5056fea265627a7a723058200ebfc126880f099869489c3961664727c37c93453ce67cbf861d2ccb00eb93a86c6578706572696d656e74616cf50037",
  "source": "pragma solidity ^0.5.0;\r\npragma experimental ABIEncoderV2;\r\n\r\nimport \"./OpenOraclePriceData.sol\";\r\nimport \"./OpenOracleView.sol\";\r\nimport \"./OpenOracleOnChainInterface.sol\";\r\n\r\n/**\r\n * @notice The DelFi Price Feed View\r\n * @author Compound Labs, Inc.\r\n */\r\ncontract DelFiPriceWithOnchainData is OpenOracleView {\r\n\r\n    /**\r\n     * @notice The fundamental unit of storage for the on-chain source\r\n     */\r\n    struct Datum {\r\n        uint64 timestamp;\r\n        uint64 value;\r\n    }\r\n    mapping(address => mapping(string => Datum)) private onChainData;\r\n    /**\r\n     * @notice The list(array) of onChainSources contract addresses\r\n     */\r\n    address[] onChainSources;\r\n    uint public duration; //how long prices are good for\r\n\r\n    /**\r\n     * @notice The mapping of medianized prices per symbol\r\n     */\r\n    mapping(string => uint64) public prices;\r\n    /**\r\n     * @notice The event emitted when a price is written to storage\r\n     */\r\n    event Price(string symbol, uint64 price);\r\n\r\n    /**\r\n     * @notice Specify the OpenOraclePriceData address, addresses for approved off-chain and on-chain data providers.\r\n     * @param data_ is the address for the OpenOraclePriceData contract\r\n     * @param sources_ is the list of authorized addresses to provide/sign off-chain data\r\n     * @param onChainSources_ is the list of authorized on-chain souces addresses \r\n     * @param _duration is the timeframe a value is considered a good value. Basically sets an expiration date\r\n     * for a value to be \"good for use\" from when a value is added to when is used. \r\n     */\r\n    constructor(OpenOraclePriceData data_, address[] memory sources_,address[] memory onChainSources_, uint _duration) public OpenOracleView(data_, sources_) {\r\n        onChainSources = onChainSources_;\r\n        duration = _duration;\r\n    }\r\n\r\n    /**\r\n     * @notice Allows users to get median price data\r\n     * @param _symbol The symbol/identifier for data such as \"ETH/USD\"\r\n     */\r\n    function getPrice(string memory _symbol) public view returns(uint64){\r\n        return prices[_symbol];\r\n    }\r\n\r\n    /**\r\n     * @notice Primary entry point to post and recalculate prices\r\n     * @dev We let anyone pay to post anything, but only sources count for prices.\r\n     * @param messages The messages to post to the oracle\r\n     * @param signatures The signatures for the corresponding messages\r\n     * @param symbols The symbol/identifier for data such as \"ETH/USD\"\r\n     */\r\n    function postPrices(bytes[] calldata messages, bytes[] calldata signatures, string[] calldata symbols) external {\r\n        require(messages.length == signatures.length, \"messages and signatures must be 1:1\");\r\n        // Post the messages, whatever they are\r\n        for (uint ii = 0; ii < messages.length; ii++) {\r\n            OpenOraclePriceData(address(data)).put(messages[ii], signatures[ii]);\r\n        }\r\n        for (uint k = 0; k < symbols.length; k++) {\r\n            string memory symbol = symbols[k];\r\n            updateOnChainPrice(symbol);\r\n            uint64 price = medianPrice(symbol);\r\n            prices[symbol] = price;\r\n            emit Price(symbol, price);\r\n        }\r\n    }\r\n\r\n    /**\r\n     * @notice Saves median of on-chain and off-chain oracle data for the specified symbols\r\n     * @param symbols The symbols/identifiers for data such as \"ETH/USD\"\r\n     */\r\n    function postOnChainPrices(string[] memory symbols) public {\r\n            for (uint i = 0; i < symbols.length; i++) {\r\n                string memory symbol = symbols[i];\r\n                updateOnChainPrice(symbol);\r\n                uint64 price = medianPrice(symbol);\r\n                prices[symbol] = price;\r\n                emit Price(symbol, price);\r\n            }\r\n    }\r\n\r\n    /**\r\n     * notice Gets off-chain oracle data for the specified symbol\r\n     * @param symbol The symbol/identifier for data such as \"ETH/USD\"\r\n    */\r\n    function updateOnChainPrice(string memory symbol) internal {\r\n            bool _didGet;\r\n            uint _retrievedValue;\r\n            uint _timestampRetrieved;\r\n            for(uint j=0; j< onChainSources.length; j++){\r\n                (_didGet,_retrievedValue,_timestampRetrieved) = OpenOracleOnChainInterface(address(onChainSources[j])).getCurrentValue(symbol);   \r\n                if(_didGet){//or a different threshold ( && _timestampRetrieved > now - 1 days .. or none like Compound)\r\n                    onChainData[onChainSources[j]][symbol] = Datum({\r\n                        value: uint64(_retrievedValue),\r\n                        timestamp: uint64(_timestampRetrieved)\r\n                    });\r\n                }         \r\n            }\r\n    }\r\n    \r\n    /**\r\n     * @notice Calculates the median price over any set of sources\r\n     * @param symbol The symbol to calculate the median price of\r\n     * @return median The median price over the set of sources\r\n     */\r\n    function medianPrice(string memory symbol) public returns (uint64 median) {\r\n        // Calculate the median price, write to storage, and emit an event\r\n        //we need to have a timestamp restriction (updated within last X...)\r\n        uint64[] memory postedPrices = new uint64[](sources.length + onChainSources.length);\r\n        uint64 _t;\r\n        uint64 _v;\r\n        uint _updatedSources;\r\n        for (uint i = 0; i <sources.length + onChainSources.length; i++){\r\n            if(i < sources.length){\r\n                (_t,_v) = OpenOraclePriceData(address(data)).get(sources[i], symbol);\r\n                if (_t > now - duration){\r\n                    postedPrices[_updatedSources] =_v;\r\n                    _updatedSources++;\r\n                }\r\n            }\r\n            else{\r\n                (_t,_v) = getOnChain(onChainSources[i-sources.length], symbol);\r\n                if (_t > now - duration){\r\n                    postedPrices[_updatedSources] = _v;\r\n                    _updatedSources++;\r\n                }\r\n            }\r\n        }\r\n        //resize array for sorting\r\n        uint64[] memory allPrices = new uint64[](_updatedSources);\r\n        for (uint i=0; i < (_updatedSources); i++) {\r\n                allPrices[i] = postedPrices[i];\r\n        }\r\n        uint64[] memory sortedPrices = sort(allPrices);\r\n        if(_updatedSources>1){\r\n            return sortedPrices[_updatedSources / 2];\r\n        }\r\n        else if(_updatedSources == 1){\r\n            return sortedPrices[0];\r\n        }\r\n        else{\r\n            return 0;\r\n        }\r\n    }\r\n\r\n    /**\r\n     * @notice Helper to sort an array of uints\r\n     * @param array Array of integers to sort\r\n     * @return The sorted array of integers\r\n     */\r\n    function sort(uint64[] memory array) private pure returns (uint64[] memory) {\r\n        uint N = array.length;\r\n        for (uint i = 0; i < N; i++) {\r\n            for (uint j = i + 1; j < N; j++) {\r\n                if (array[i] > array[j]) {\r\n                    uint64 tmp = array[i];\r\n                    array[i] = array[j];\r\n                    array[j] = tmp;\r\n                }\r\n            }\r\n        }\r\n        return array;\r\n    }\r\n\r\n    /**\r\n     * @notice Read a single key from an authenticated source\r\n     * @param source The verifiable author of the data\r\n     * @param key The selector for the value to return\r\n     * @return The claimed Unix timestamp for the data and the price value (defaults to (0, 0))\r\n     */\r\n    function getOnChain(address source, string memory key) public view returns (uint64, uint64) {\r\n        Datum storage datum = onChainData[source][key];\r\n        return (datum.timestamp, datum.value);\r\n    }\r\n\r\n    /**\r\n     * @notice Read only the value for a single key from an authenticated source\r\n     * @param source The verifiable author of the data\r\n     * @param key The selector for the value to return\r\n     * @return The price value (defaults to 0)\r\n     */\r\n    function getOnChainPrice(address source, string calldata key) external view returns (uint64) {\r\n        return onChainData[source][key].value;\r\n    }\r\n}",
  "sourcePath": "C:\\users\\lloya\\documents\\dda\\1tellor\\tellor\\projects\\open-oracle\\contracts\\DelFiPriceWithOnchainData.sol",
  "compiler": {
    "name": "solc",
    "version": "0.5.8+commit.23d335f2.Emscripten.clang"
  },
  "schemaVersion": "3.0.11",
  "updatedAt": "2019-11-06T20:12:17.601Z",
  "devdoc": {
    "author": "Compound Labs, Inc.\r",
    "methods": {
      "constructor": {
        "params": {
          "_duration": "is the timeframe a value is considered a good value. Basically sets an expiration date\r for a value to be \"good for use\" from when a value is added to when is used. \r",
          "data_": "is the address for the OpenOraclePriceData contract\r",
          "onChainSources_": "is the list of authorized on-chain souces addresses \r",
          "sources_": "is the list of authorized addresses to provide/sign off-chain data\r"
        }
      },
      "getOnChain(address,string)": {
        "params": {
          "key": "The selector for the value to return\r",
          "source": "The verifiable author of the data\r"
        },
        "return": "The claimed Unix timestamp for the data and the price value (defaults to (0, 0))\r"
      },
      "getOnChainPrice(address,string)": {
        "params": {
          "key": "The selector for the value to return\r",
          "source": "The verifiable author of the data\r"
        },
        "return": "The price value (defaults to 0)\r"
      },
      "getPrice(string)": {
        "params": {
          "_symbol": "The symbol/identifier for data such as \"ETH/USD\"\r"
        }
      },
      "medianPrice(string)": {
        "params": {
          "symbol": "The symbol to calculate the median price of\r"
        },
        "return": "median The median price over the set of sources\r"
      },
      "postOnChainPrices(string[])": {
        "params": {
          "symbols": "The symbols/identifiers for data such as \"ETH/USD\"\r"
        }
      },
      "postPrices(bytes[],bytes[],string[])": {
        "details": "We let anyone pay to post anything, but only sources count for prices.\r",
        "params": {
          "messages": "The messages to post to the oracle\r",
          "signatures": "The signatures for the corresponding messages\r",
          "symbols": "The symbol/identifier for data such as \"ETH/USD\"\r"
        }
      }
    }
  },
  "userdoc": {
    "methods": {
      "constructor": "Specify the OpenOraclePriceData address, addresses for approved off-chain and on-chain data providers.\r",
      "getOnChain(address,string)": {
        "notice": "Read a single key from an authenticated source\r"
      },
      "getOnChainPrice(address,string)": {
        "notice": "Read only the value for a single key from an authenticated source\r"
      },
      "getPrice(string)": {
        "notice": "Allows users to get median price data\r"
      },
      "medianPrice(string)": {
        "notice": "Calculates the median price over any set of sources\r"
      },
      "postOnChainPrices(string[])": {
        "notice": "Saves median of on-chain and off-chain oracle data for the specified symbols\r"
      },
      "postPrices(bytes[],bytes[],string[])": {
        "notice": "Primary entry point to post and recalculate prices\r"
      }
    },
    "notice": "The DelFi Price Feed View\r"
  }
}