{
  "contractName": "DelFiPriceWithOnchainData",
  "abi": [
    {
      "constant": true,
      "inputs": [],
      "name": "data",
      "outputs": [
        {
          "name": "",
          "type": "address"
        }
      ],
      "payable": false,
      "stateMutability": "view",
      "type": "function"
    },
    {
      "constant": true,
      "inputs": [
        {
          "name": "",
          "type": "uint256"
        }
      ],
      "name": "sources",
      "outputs": [
        {
          "name": "",
          "type": "address"
        }
      ],
      "payable": false,
      "stateMutability": "view",
      "type": "function"
    },
    {
      "constant": true,
      "inputs": [
        {
          "name": "",
          "type": "string"
        }
      ],
      "name": "prices",
      "outputs": [
        {
          "name": "",
          "type": "uint64"
        }
      ],
      "payable": false,
      "stateMutability": "view",
      "type": "function"
    },
    {
      "inputs": [
        {
          "name": "data_",
          "type": "address"
        },
        {
          "name": "sources_",
          "type": "address[]"
        },
        {
          "name": "onChainSources_",
          "type": "address[]"
        },
        {
          "name": "_duration",
          "type": "uint256"
        }
      ],
      "payable": false,
      "stateMutability": "nonpayable",
      "type": "constructor"
    },
    {
      "anonymous": false,
      "inputs": [
        {
          "indexed": false,
          "name": "symbol",
          "type": "string"
        },
        {
          "indexed": false,
          "name": "price",
          "type": "uint64"
        }
      ],
      "name": "Price",
      "type": "event"
    },
    {
      "constant": false,
      "inputs": [
        {
          "name": "_symbol",
          "type": "string"
        }
      ],
      "name": "getPrice",
      "outputs": [
        {
          "name": "",
          "type": "uint64"
        }
      ],
      "payable": false,
      "stateMutability": "nonpayable",
      "type": "function"
    },
    {
      "constant": false,
      "inputs": [
        {
          "name": "messages",
          "type": "bytes[]"
        },
        {
          "name": "signatures",
          "type": "bytes[]"
        },
        {
          "name": "symbols",
          "type": "string[]"
        }
      ],
      "name": "postPrices",
      "outputs": [],
      "payable": false,
      "stateMutability": "nonpayable",
      "type": "function"
    },
    {
      "constant": false,
      "inputs": [
        {
          "name": "symbols",
          "type": "string[]"
        }
      ],
      "name": "postOnChainPrices",
      "outputs": [],
      "payable": false,
      "stateMutability": "nonpayable",
      "type": "function"
    },
    {
      "constant": false,
      "inputs": [
        {
          "name": "symbol",
          "type": "string"
        }
      ],
      "name": "medianPrice",
      "outputs": [
        {
          "name": "median",
          "type": "uint64"
        }
      ],
      "payable": false,
      "stateMutability": "nonpayable",
      "type": "function"
    },
    {
      "constant": true,
      "inputs": [
        {
          "name": "source",
          "type": "address"
        },
        {
          "name": "key",
          "type": "string"
        }
      ],
      "name": "getOnChain",
      "outputs": [
        {
          "name": "",
          "type": "uint64"
        },
        {
          "name": "",
          "type": "uint64"
        }
      ],
      "payable": false,
      "stateMutability": "view",
      "type": "function"
    },
    {
      "constant": true,
      "inputs": [
        {
          "name": "source",
          "type": "address"
        },
        {
          "name": "key",
          "type": "string"
        }
      ],
      "name": "getOnChainPrice",
      "outputs": [
        {
          "name": "",
          "type": "uint64"
        }
      ],
      "payable": false,
      "stateMutability": "view",
      "type": "function"
    }
  ],
  "bytecode": "0x60806040523480156200001157600080fd5b5060405162001d4e38038062001d4e83398101806040526200003791908101906200025e565b8383816000806101000a81548173ffffffffffffffffffffffffffffffffffffffff021916908373ffffffffffffffffffffffffffffffffffffffff160217905550806001908051906020019062000091929190620000b7565b5050508160039080519060200190620000ac929190620000b7565b5050505050620003f3565b82805482825590600052602060002090810192821562000133579160200282015b82811115620001325782518260006101000a81548173ffffffffffffffffffffffffffffffffffffffff021916908373ffffffffffffffffffffffffffffffffffffffff16021790555091602001919060010190620000d8565b5b50905062000142919062000146565b5090565b6200018991905b808211156200018557600081816101000a81549073ffffffffffffffffffffffffffffffffffffffff0219169055506001016200014d565b5090565b90565b6000815190506200019d81620003a5565b92915050565b600082601f830112620001b557600080fd5b8151620001cc620001c6826200032a565b620002fc565b91508181835260208401935060208101905083856020840282011115620001f257600080fd5b60005b838110156200022657816200020b88826200018c565b845260208401935060208301925050600181019050620001f5565b5050505092915050565b6000815190506200024181620003bf565b92915050565b6000815190506200025881620003d9565b92915050565b600080600080608085870312156200027557600080fd5b6000620002858782880162000230565b945050602085015167ffffffffffffffff811115620002a357600080fd5b620002b187828801620001a3565b935050604085015167ffffffffffffffff811115620002cf57600080fd5b620002dd87828801620001a3565b9250506060620002f08782880162000247565b91505092959194509250565b6000604051905081810181811067ffffffffffffffff821117156200032057600080fd5b8060405250919050565b600067ffffffffffffffff8211156200034257600080fd5b602082029050602081019050919050565b600062000360826200037b565b9050919050565b6000620003748262000353565b9050919050565b600073ffffffffffffffffffffffffffffffffffffffff82169050919050565b6000819050919050565b620003b08162000353565b8114620003bc57600080fd5b50565b620003ca8162000367565b8114620003d657600080fd5b50565b620003e4816200039b565b8114620003f057600080fd5b50565b61194b80620004036000396000f3fe608060405234801561001057600080fd5b50600436106100935760003560e01c806373d4a13a1161006657806373d4a13a14610159578063a3663d3714610177578063c3825f4b146101a7578063cd99fb67146101d7578063ecc1e984146101f357610093565b80633a9ea047146100985780634a34def4146100c8578063524f3889146100f95780636ec6452914610129575b600080fd5b6100b260048036036100ad919081019061111f565b61020f565b6040516100bf91906116b9565b60405180910390f35b6100e260048036036100dd9190810190611177565b61028f565b6040516100f09291906116d4565b60405180910390f35b610113600480360361010e9190810190611340565b61032f565b60405161012091906116b9565b60405180910390f35b610143600480360361013e9190810190611340565b61036b565b60405161015091906116b9565b60405180910390f35b610161610687565b60405161016e919061162c565b60405180910390f35b610191600480360361018c91908101906113c2565b6106ac565b60405161019e91906115a6565b60405180910390f35b6101c160048036036101bc91908101906112ff565b6106e8565b6040516101ce91906116b9565b60405180910390f35b6101f160048036036101ec919081019061126f565b610725565b005b61020d600480360361020891908101906111cb565b6107f3565b005b6000600260008573ffffffffffffffffffffffffffffffffffffffff1673ffffffffffffffffffffffffffffffffffffffff1681526020019081526020016000208383604051610260929190611576565b908152602001604051809103902060000160089054906101000a900467ffffffffffffffff1690509392505050565b6000806000600260008673ffffffffffffffffffffffffffffffffffffffff1673ffffffffffffffffffffffffffffffffffffffff168152602001908152602001600020846040516102e1919061158f565b908152602001604051809103902090508060000160009054906101000a900467ffffffffffffffff168160000160089054906101000a900467ffffffffffffffff1692509250509250929050565b6000600582604051610341919061158f565b908152602001604051809103902060009054906101000a900467ffffffffffffffff169050919050565b60006060600380549050600180549050016040519080825280602002602001820160405280156103aa5781602001602082028038833980820191505090505b509050600080600080600090505b600380549050600180549050018110156105bb57600180549050811015610516576000809054906101000a900473ffffffffffffffffffffffffffffffffffffffff1673ffffffffffffffffffffffffffffffffffffffff1663fc2525ab6001838154811061042357fe5b9060005260206000200160009054906101000a900473ffffffffffffffffffffffffffffffffffffffff16896040518363ffffffff1660e01b815260040161046c9291906115c1565b604080518083038186803b15801561048357600080fd5b505afa158015610497573d6000803e3d6000fd5b505050506040513d601f19601f820116820180604052506104bb91908101906113eb565b809450819550505060045442038467ffffffffffffffff16111561051157828583815181106104e657fe5b602002602001019067ffffffffffffffff16908167ffffffffffffffff168152505081806001019250505b6105ae565b6105576003828154811061052657fe5b9060005260206000200160009054906101000a900473ffffffffffffffffffffffffffffffffffffffff168861028f565b809450819550505060045442038467ffffffffffffffff1611156105ad578285838151811061058257fe5b602002602001019067ffffffffffffffff16908167ffffffffffffffff168152505081806001019250505b5b80806001019150506103b8565b506060816040519080825280602002602001820160405280156105ed5781602001602082028038833980820191505090505b50905060008090505b8281101561064d5785818151811061060a57fe5b602002602001015182828151811061061e57fe5b602002602001019067ffffffffffffffff16908167ffffffffffffffff168152505080806001019150506105f6565b50606061065982610b32565b905080600283518161066757fe5b048151811061067257fe5b60200260200101519650505050505050919050565b6000809054906101000a900473ffffffffffffffffffffffffffffffffffffffff1681565b600181815481106106b957fe5b906000526020600020016000915054906101000a900473ffffffffffffffffffffffffffffffffffffffff1681565b6005818051602081018201805184825260208301602085012081835280955050505050506000915054906101000a900467ffffffffffffffff1681565b60008090505b81518110156107ef57606082828151811061074257fe5b6020026020010151905061075581610c4b565b60006107608261036b565b905080600583604051610773919061158f565b908152602001604051809103902060006101000a81548167ffffffffffffffff021916908367ffffffffffffffff1602179055507fb2e815941d7128f92d462d01c0437043997866e1862dd7832f48bcd40186103782826040516107d8929190611669565b60405180910390a15050808060010191505061072b565b5050565b83839050868690501461083b576040517f08c379a000000000000000000000000000000000000000000000000000000000815260040161083290611699565b60405180910390fd5b60008090505b868690508110156109cd576000809054906101000a900473ffffffffffffffffffffffffffffffffffffffff1673ffffffffffffffffffffffffffffffffffffffff166338636e9a88888481811061089557fe5b90506020028101803560016020038336030381126108b257600080fd5b8083019250508135905060208201915067ffffffffffffffff8111156108d757600080fd5b6001810236038213156108e957600080fd5b8888868181106108f557fe5b905060200281018035600160200383360303811261091257600080fd5b8083019250508135905060208201915067ffffffffffffffff81111561093757600080fd5b60018102360382131561094957600080fd5b6040518563ffffffff1660e01b815260040161096894939291906115f1565b600060405180830381600087803b15801561098257600080fd5b505af1158015610996573d6000803e3d6000fd5b505050506040513d6000823e3d601f19601f820116820180604052506109bf9190810190611381565b508080600101915050610841565b5060008090505b82829050811015610b295760608383838181106109ed57fe5b9050602002810180356001602003833603038112610a0a57600080fd5b8083019250508135905060208201915067ffffffffffffffff811115610a2f57600080fd5b600181023603821315610a4157600080fd5b8080601f016020809104026020016040519081016040528093929190818152602001838380828437600081840152601f19601f820116905080830192505050505050509050610a8f81610c4b565b6000610a9a8261036b565b905080600583604051610aad919061158f565b908152602001604051809103902060006101000a81548167ffffffffffffffff021916908367ffffffffffffffff1602179055507fb2e815941d7128f92d462d01c0437043997866e1862dd7832f48bcd4018610378282604051610b12929190611669565b60405180910390a1505080806001019150506109d4565b50505050505050565b606060008251905060008090505b81811015610c415760006001820190505b82811015610c3357848181518110610b6557fe5b602002602001015167ffffffffffffffff16858381518110610b8357fe5b602002602001015167ffffffffffffffff161115610c26576000858381518110610ba957fe5b60200260200101519050858281518110610bbf57fe5b6020026020010151868481518110610bd357fe5b602002602001019067ffffffffffffffff16908167ffffffffffffffff168152505080868381518110610c0257fe5b602002602001019067ffffffffffffffff16908167ffffffffffffffff1681525050505b8080600101915050610b51565b508080600101915050610b40565b5082915050919050565b600080600080600090505b600380549050811015610e615760038181548110610c7057fe5b9060005260206000200160009054906101000a900473ffffffffffffffffffffffffffffffffffffffff1673ffffffffffffffffffffffffffffffffffffffff166354449126866040518263ffffffff1660e01b8152600401610cd39190611647565b606060405180830381600087803b158015610ced57600080fd5b505af1158015610d01573d6000803e3d6000fd5b505050506040513d601f19601f82011682018060405250610d2591908101906112b0565b8094508195508296505050508315610e545760405180604001604052808367ffffffffffffffff1681526020018467ffffffffffffffff168152506002600060038481548110610d7157fe5b9060005260206000200160009054906101000a900473ffffffffffffffffffffffffffffffffffffffff1673ffffffffffffffffffffffffffffffffffffffff1673ffffffffffffffffffffffffffffffffffffffff16815260200190815260200160002086604051610de4919061158f565b908152602001604051809103902060008201518160000160006101000a81548167ffffffffffffffff021916908367ffffffffffffffff16021790555060208201518160000160086101000a81548167ffffffffffffffff021916908367ffffffffffffffff1602179055509050505b8080600101915050610c56565b5050505050565b600081359050610e77816118b5565b92915050565b60008083601f840112610e8f57600080fd5b8235905067ffffffffffffffff811115610ea857600080fd5b602083019150836020820283011115610ec057600080fd5b9250929050565b60008083601f840112610ed957600080fd5b8235905067ffffffffffffffff811115610ef257600080fd5b602083019150836020820283011115610f0a57600080fd5b9250929050565b600082601f830112610f2257600080fd5b8135610f35610f308261172a565b6116fd565b9150818183526020840193506020810190508360005b83811015610f7b5781358601610f618882610fe4565b845260208401935060208301925050600181019050610f4b565b5050505092915050565b600081519050610f94816118cc565b92915050565b60008083601f840112610fac57600080fd5b8235905067ffffffffffffffff811115610fc557600080fd5b602083019150836001820283011115610fdd57600080fd5b9250929050565b600082601f830112610ff557600080fd5b813561100861100382611752565b6116fd565b9150808252602083016020830185838301111561102457600080fd5b61102f838284611862565b50505092915050565b600082601f83011261104957600080fd5b813561105c6110578261177e565b6116fd565b9150808252602083016020830185838301111561107857600080fd5b611083838284611862565b50505092915050565b600082601f83011261109d57600080fd5b81516110b06110ab8261177e565b6116fd565b915080825260208301602083018583830111156110cc57600080fd5b6110d7838284611871565b50505092915050565b6000813590506110ef816118e3565b92915050565b600081519050611104816118e3565b92915050565b600081519050611119816118fa565b92915050565b60008060006040848603121561113457600080fd5b600061114286828701610e68565b935050602084013567ffffffffffffffff81111561115f57600080fd5b61116b86828701610f9a565b92509250509250925092565b6000806040838503121561118a57600080fd5b600061119885828601610e68565b925050602083013567ffffffffffffffff8111156111b557600080fd5b6111c185828601611038565b9150509250929050565b600080600080600080606087890312156111e457600080fd5b600087013567ffffffffffffffff8111156111fe57600080fd5b61120a89828a01610e7d565b9650965050602087013567ffffffffffffffff81111561122957600080fd5b61123589828a01610e7d565b9450945050604087013567ffffffffffffffff81111561125457600080fd5b61126089828a01610ec7565b92509250509295509295509295565b60006020828403121561128157600080fd5b600082013567ffffffffffffffff81111561129b57600080fd5b6112a784828501610f11565b91505092915050565b6000806000606084860312156112c557600080fd5b60006112d386828701610f85565b93505060206112e4868287016110f5565b92505060406112f5868287016110f5565b9150509250925092565b60006020828403121561131157600080fd5b600082013567ffffffffffffffff81111561132b57600080fd5b61133784828501610fe4565b91505092915050565b60006020828403121561135257600080fd5b600082013567ffffffffffffffff81111561136c57600080fd5b61137884828501611038565b91505092915050565b60006020828403121561139357600080fd5b600082015167ffffffffffffffff8111156113ad57600080fd5b6113b98482850161108c565b91505092915050565b6000602082840312156113d457600080fd5b60006113e2848285016110e0565b91505092915050565b600080604083850312156113fe57600080fd5b600061140c8582860161110a565b925050602061141d8582860161110a565b9150509250929050565b611430816117e2565b82525050565b600061144283856117b5565b935061144f838584611862565b611458836118a4565b840190509392505050565b61146c8161183e565b82525050565b600061147e83856117d7565b935061148b838584611862565b82840190509392505050565b60006114a2826117aa565b6114ac81856117c6565b93506114bc818560208601611871565b6114c5816118a4565b840191505092915050565b60006114db826117aa565b6114e581856117d7565b93506114f5818560208601611871565b80840191505092915050565b600061150e6023836117c6565b91507f6d6573736167657320616e64207369676e617475726573206d7573742062652060008301527f313a3100000000000000000000000000000000000000000000000000000000006020830152604082019050919050565b6115708161182a565b82525050565b6000611583828486611472565b91508190509392505050565b600061159b82846114d0565b915081905092915050565b60006020820190506115bb6000830184611427565b92915050565b60006040820190506115d66000830185611427565b81810360208301526115e88184611497565b90509392505050565b6000604082019050818103600083015261160c818688611436565b90508181036020830152611621818486611436565b905095945050505050565b60006020820190506116416000830184611463565b92915050565b600060208201905081810360008301526116618184611497565b905092915050565b600060408201905081810360008301526116838185611497565b90506116926020830184611567565b9392505050565b600060208201905081810360008301526116b281611501565b9050919050565b60006020820190506116ce6000830184611567565b92915050565b60006040820190506116e96000830185611567565b6116f66020830184611567565b9392505050565b6000604051905081810181811067ffffffffffffffff8211171561172057600080fd5b8060405250919050565b600067ffffffffffffffff82111561174157600080fd5b602082029050602081019050919050565b600067ffffffffffffffff82111561176957600080fd5b601f19601f8301169050602081019050919050565b600067ffffffffffffffff82111561179557600080fd5b601f19601f8301169050602081019050919050565b600081519050919050565b600082825260208201905092915050565b600082825260208201905092915050565b600081905092915050565b60006117ed82611800565b9050919050565b60008115159050919050565b600073ffffffffffffffffffffffffffffffffffffffff82169050919050565b6000819050919050565b600067ffffffffffffffff82169050919050565b600061184982611850565b9050919050565b600061185b82611800565b9050919050565b82818337600083830152505050565b60005b8381101561188f578082015181840152602081019050611874565b8381111561189e576000848401525b50505050565b6000601f19601f8301169050919050565b6118be816117e2565b81146118c957600080fd5b50565b6118d5816117f4565b81146118e057600080fd5b50565b6118ec81611820565b81146118f757600080fd5b50565b6119038161182a565b811461190e57600080fd5b5056fea265627a7a723058204060f7a4838e6240e93ca85e1771e0ef826b94d8332d67883d74fda91eed40726c6578706572696d656e74616cf50037",
  "source": "pragma solidity ^0.5.0;\r\npragma experimental ABIEncoderV2;\r\n\r\nimport \"./OpenOraclePriceData.sol\";\r\nimport \"./OpenOracleView.sol\";\r\nimport \"./OpenOracleOnChainInterface.sol\";\r\n\r\n/**\r\n * @notice The DelFi Price Feed View\r\n * @author Compound Labs, Inc.\r\n */\r\ncontract DelFiPriceWithOnchainData is OpenOracleView {\r\n\r\n    /**\r\n     * @notice The fundamental unit of storage for the on-chain source\r\n     */\r\n    struct Datum {\r\n        uint64 timestamp;\r\n        uint64 value;\r\n    }\r\n    mapping(address => mapping(string => Datum)) private onChainData;\r\n    /**\r\n     * @notice The list(array) of onChainSources contract addresses\r\n     */\r\n    address[] onChainSources;\r\n    uint duration; //how long prices are good for\r\n\r\n    /**\r\n     * @notice The mapping of medianized prices per symbol\r\n     */\r\n    mapping(string => uint64) public prices;\r\n    /**\r\n     * @notice The event emitted when a price is written to storage\r\n     */\r\n    event Price(string symbol, uint64 price);\r\n\r\n    /**\r\n     * @dev Specify the OpenOraclePriceData address, addresses for approved off-chain and on-chain data providers.\r\n     * @param data_ is the address for the OpenOraclePriceData contract\r\n     * @param sources_ is the list of authorized addresses to provide/sign off-chain data\r\n     * @param onChainSources_ is the list of authorized on-chain souces addresses \r\n     */\r\n    constructor(OpenOraclePriceData data_, address[] memory sources_,address[] memory onChainSources_, uint _duration) public OpenOracleView(data_, sources_) {\r\n        onChainSources = onChainSources_;\r\n    }\r\n\r\n    /**\r\n     * @notice Allows users to get median price data\r\n     * @param _symbol is the price symbol such as 'ETH/USD' etc...\r\n     */\r\n    function getPrice(string memory _symbol) public returns(uint64){\r\n        return prices[_symbol];\r\n    }\r\n\r\n    /**\r\n     * @notice Primary entry point to post and recalculate prices\r\n     * @dev We let anyone pay to post anything, but only sources count for prices.\r\n     * @param messages The messages to post to the oracle\r\n     * @param signatures The signatures for the corresponding messages\r\n     */\r\n    function postPrices(bytes[] calldata messages, bytes[] calldata signatures, string[] calldata symbols) external {\r\n        require(messages.length == signatures.length, \"messages and signatures must be 1:1\");\r\n        // Post the messages, whatever they are\r\n        for (uint ii = 0; ii < messages.length; ii++) {\r\n            OpenOraclePriceData(address(data)).put(messages[ii], signatures[ii]);\r\n        }\r\n        for (uint i = 0; i < symbols.length; i++) {\r\n            string memory symbol = symbols[i];\r\n            updateOnChainPrice(symbol);\r\n            uint64 price = medianPrice(symbol);\r\n            prices[symbol] = price;\r\n            emit Price(symbol, price);\r\n        }\r\n    }\r\n\r\n    function postOnChainPrices(string[] memory symbols) public {\r\n            for (uint i = 0; i < symbols.length; i++) {\r\n                string memory symbol = symbols[i];\r\n                updateOnChainPrice(symbol);\r\n                uint64 price = medianPrice(symbol);\r\n                prices[symbol] = price;\r\n                emit Price(symbol, price);\r\n            }\r\n    }\r\n\r\n    function updateOnChainPrice(string memory symbol) internal {\r\n            bool _didGet;\r\n            uint _retrievedValue;\r\n            uint _timestampRetrieved;\r\n            for(uint j=0; j< onChainSources.length; j++){\r\n                (_didGet,_retrievedValue,_timestampRetrieved) = OpenOracleOnChainInterface(address(onChainSources[j])).getCurrentValue(symbol);   \r\n                if(_didGet){//or a different threshold ( && _timestampRetrieved > now - 1 days .. or none like Compound)\r\n                    onChainData[onChainSources[j]][symbol] = Datum({\r\n                        value: uint64(_retrievedValue),\r\n                        timestamp: uint64(_timestampRetrieved)\r\n                    });\r\n                }         \r\n            }\r\n    }\r\n    /**\r\n     * @notice Calculates the median price over any set of sources\r\n     * @param symbol The symbol to calculate the median price of\r\n     * @return median The median price over the set of sources\r\n     */\r\n    function medianPrice(string memory symbol) public returns (uint64 median) {\r\n        // Calculate the median price, write to storage, and emit an event\r\n        //we need to have a timestamp restriction (updated within last X...)\r\n        uint64[] memory postedPrices = new uint64[](sources.length + onChainSources.length);\r\n        uint64 _t;\r\n        uint64 _v;\r\n        uint _updatedSources;\r\n        for (uint i = 0; i <sources.length + onChainSources.length; i++){\r\n            if(i < sources.length){\r\n                (_t,_v) = OpenOraclePriceData(address(data)).get(sources[i], symbol);\r\n                if (_t > now - duration){\r\n                    postedPrices[_updatedSources] =_v;\r\n                    _updatedSources++;\r\n                }\r\n            }\r\n            else{\r\n                (_t,_v) = getOnChain(onChainSources[i], symbol);\r\n                if (_t > now - duration){\r\n                    postedPrices[_updatedSources] = _v;\r\n                    _updatedSources++;\r\n                }\r\n            }\r\n        }\r\n        //resize array for sorting\r\n        uint64[] memory allPrices = new uint64[](_updatedSources);\r\n        for (uint i=0; i < (_updatedSources); i++) {\r\n                allPrices[i] = postedPrices[i];\r\n        }\r\n        uint64[] memory sortedPrices = sort(allPrices);\r\n        return sortedPrices[allPrices.length / 2];\r\n    }\r\n\r\n    /**\r\n     * @notice Helper to sort an array of uints\r\n     * @param array Array of integers to sort\r\n     * @return The sorted array of integers\r\n     */\r\n    function sort(uint64[] memory array) private pure returns (uint64[] memory) {\r\n        uint N = array.length;\r\n        for (uint i = 0; i < N; i++) {\r\n            for (uint j = i + 1; j < N; j++) {\r\n                if (array[i] > array[j]) {\r\n                    uint64 tmp = array[i];\r\n                    array[i] = array[j];\r\n                    array[j] = tmp;\r\n                }\r\n            }\r\n        }\r\n        return array;\r\n    }\r\n\r\n    /**\r\n     * @notice Read a single key from an authenticated source\r\n     * @param source The verifiable author of the data\r\n     * @param key The selector for the value to return\r\n     * @return The claimed Unix timestamp for the data and the price value (defaults to (0, 0))\r\n     */\r\n    function getOnChain(address source, string memory key) public view returns (uint64, uint64) {\r\n        Datum storage datum = onChainData[source][key];\r\n        return (datum.timestamp, datum.value);\r\n    }\r\n\r\n    /**\r\n     * @notice Read only the value for a single key from an authenticated source\r\n     * @param source The verifiable author of the data\r\n     * @param key The selector for the value to return\r\n     * @return The price value (defaults to 0)\r\n     */\r\n    function getOnChainPrice(address source, string calldata key) external view returns (uint64) {\r\n        return onChainData[source][key].value;\r\n    }\r\n}",
  "sourcePath": "C:\\company\\code\\open-oracle\\contracts\\DelFiPriceWithOnchainData.sol",
  "compiler": {
    "name": "solc",
    "version": "0.5.8+commit.23d335f2.Emscripten.clang"
  },
  "schemaVersion": "3.0.16",
  "updatedAt": "2019-11-05T21:45:01.428Z",
  "devdoc": {
    "author": "Compound Labs, Inc.\r",
    "methods": {
      "constructor": {
        "details": "Specify the OpenOraclePriceData address, addresses for approved off-chain and on-chain data providers.\r",
        "params": {
          "data_": "is the address for the OpenOraclePriceData contract\r",
          "onChainSources_": "is the list of authorized on-chain souces addresses \r",
          "sources_": "is the list of authorized addresses to provide/sign off-chain data\r"
        }
      },
      "getOnChain(address,string)": {
        "params": {
          "key": "The selector for the value to return\r",
          "source": "The verifiable author of the data\r"
        },
        "return": "The claimed Unix timestamp for the data and the price value (defaults to (0, 0))\r"
      },
      "getOnChainPrice(address,string)": {
        "params": {
          "key": "The selector for the value to return\r",
          "source": "The verifiable author of the data\r"
        },
        "return": "The price value (defaults to 0)\r"
      },
      "getPrice(string)": {
        "params": {
          "_symbol": "is the price symbol such as 'ETH/USD' etc...\r"
        }
      },
      "medianPrice(string)": {
        "params": {
          "symbol": "The symbol to calculate the median price of\r"
        },
        "return": "median The median price over the set of sources\r"
      },
      "postPrices(bytes[],bytes[],string[])": {
        "details": "We let anyone pay to post anything, but only sources count for prices.\r",
        "params": {
          "messages": "The messages to post to the oracle\r",
          "signatures": "The signatures for the corresponding messages\r"
        }
      }
    }
  },
  "userdoc": {
    "methods": {
      "getOnChain(address,string)": {
        "notice": "Read a single key from an authenticated source\r"
      },
      "getOnChainPrice(address,string)": {
        "notice": "Read only the value for a single key from an authenticated source\r"
      },
      "getPrice(string)": {
        "notice": "Allows users to get median price data\r"
      },
      "medianPrice(string)": {
        "notice": "Calculates the median price over any set of sources\r"
      },
      "postPrices(bytes[],bytes[],string[])": {
        "notice": "Primary entry point to post and recalculate prices\r"
      }
    },
    "notice": "The DelFi Price Feed View\r"
  }
}