{
  "contractName": "OpenOraclePriceData",
  "abi": [
    {
      "constant": true,
      "inputs": [
        {
          "name": "message",
          "type": "bytes"
        },
        {
          "name": "signature",
          "type": "bytes"
        }
      ],
      "name": "source",
      "outputs": [
        {
          "name": "",
          "type": "address"
        }
      ],
      "payable": false,
      "stateMutability": "pure",
      "type": "function"
    },
    {
      "anonymous": false,
      "inputs": [
        {
          "indexed": true,
          "name": "source",
          "type": "address"
        },
        {
          "indexed": false,
          "name": "key",
          "type": "string"
        },
        {
          "indexed": false,
          "name": "timestamp",
          "type": "uint64"
        },
        {
          "indexed": false,
          "name": "value",
          "type": "uint64"
        }
      ],
      "name": "Write",
      "type": "event"
    },
    {
      "anonymous": false,
      "inputs": [
        {
          "indexed": false,
          "name": "_s",
          "type": "string"
        },
        {
          "indexed": false,
          "name": "_n",
          "type": "uint256"
        }
      ],
      "name": "Print",
      "type": "event"
    },
    {
      "constant": false,
      "inputs": [
        {
          "name": "message",
          "type": "bytes"
        },
        {
          "name": "signature",
          "type": "bytes"
        }
      ],
      "name": "put",
      "outputs": [
        {
          "name": "",
          "type": "string"
        }
      ],
      "payable": false,
      "stateMutability": "nonpayable",
      "type": "function"
    },
    {
      "constant": true,
      "inputs": [
        {
          "name": "source",
          "type": "address"
        },
        {
          "name": "key",
          "type": "string"
        }
      ],
      "name": "get",
      "outputs": [
        {
          "name": "",
          "type": "uint64"
        },
        {
          "name": "",
          "type": "uint64"
        }
      ],
      "payable": false,
      "stateMutability": "view",
      "type": "function"
    },
    {
      "constant": true,
      "inputs": [
        {
          "name": "source",
          "type": "address"
        },
        {
          "name": "key",
          "type": "string"
        }
      ],
      "name": "getPrice",
      "outputs": [
        {
          "name": "",
          "type": "uint64"
        }
      ],
      "payable": false,
      "stateMutability": "view",
      "type": "function"
    }
  ],
  "bytecode": "0x608060405234801561001057600080fd5b50610f9b806100206000396000f3fe608060405234801561001057600080fd5b506004361061004c5760003560e01c806338636e9a14610051578063482a61931461008157806376977a3a146100b1578063fc2525ab146100e1575b600080fd5b61006b6004803603610066919081019061086b565b610112565b6040516100789190610c9b565b60405180910390f35b61009b600480360361009691908101906108e0565b610466565b6040516100a89190610c3b565b60405180910390f35b6100cb60048036036100c691908101906107c4565b610513565b6040516100d89190610d49565b60405180910390f35b6100fb60048036036100f691908101906107c4565b610592565b604051610109929190610d64565b60405180910390f35b606060006101a886868080601f016020809104026020016040519081016040528093929190818152602001838380828437600081840152601f19601f8201169050808301925050505050505085858080601f016020809104026020016040519081016040528093929190818152602001838380828437600081840152601f19601f82011690508083019250505050505050610466565b9050606060006060600089896101c1919081019061094c565b93509350935093507f5ecf36f705605fd144b15d76100246c2b9af70ede5b61b9f6b4f2a53c577ee14816040516101f89190610cfb565b60405180910390a160405160200161020f90610c26565b60405160208183030381529060405280519060200120846040516020016102369190610be9565b604051602081830303815290604052805190602001201461028c576040517f08c379a000000000000000000000000000000000000000000000000000000000815260040161028390610d29565b60405180910390fd5b60008060008773ffffffffffffffffffffffffffffffffffffffff1673ffffffffffffffffffffffffffffffffffffffff168152602001908152602001600020836040516102da9190610be9565b908152602001604051809103902090508367ffffffffffffffff168160000160009054906101000a900467ffffffffffffffff1667ffffffffffffffff1610156104555760405180604001604052808567ffffffffffffffff1681526020018367ffffffffffffffff168152506000808873ffffffffffffffffffffffffffffffffffffffff1673ffffffffffffffffffffffffffffffffffffffff168152602001908152602001600020846040516103939190610be9565b908152602001604051809103902060008201518160000160006101000a81548167ffffffffffffffff021916908367ffffffffffffffff16021790555060208201518160000160086101000a81548167ffffffffffffffff021916908367ffffffffffffffff1602179055509050508573ffffffffffffffffffffffffffffffffffffffff167f4d3f5aa96531b83f5389343ecd20cd8ac1fba33b64634c1b547a4d85d31540d384868560405161044c93929190610cbd565b60405180910390a25b829650505050505050949350505050565b60008060008084806020019051610480919081019061081c565b925092509250600086805190602001206040516020016104a09190610c00565b604051602081830303815290604052805190602001209050600181838686604051600081526020016040526040516104db9493929190610c56565b6020604051602081039080840390855afa1580156104fd573d6000803e3d6000fd5b5050506020604051035194505050505092915050565b60008060008573ffffffffffffffffffffffffffffffffffffffff1673ffffffffffffffffffffffffffffffffffffffff1681526020019081526020016000208383604051610563929190610bd0565b908152602001604051809103902060000160089054906101000a900467ffffffffffffffff1690509392505050565b60008060008060008773ffffffffffffffffffffffffffffffffffffffff1673ffffffffffffffffffffffffffffffffffffffff16815260200190815260200160002085856040516105e5929190610bd0565b908152602001604051809103902090508060000160009054906101000a900467ffffffffffffffff168160000160089054906101000a900467ffffffffffffffff169250925050935093915050565b60008135905061064381610f05565b92915050565b60008151905061065881610f1c565b92915050565b60008083601f84011261067057600080fd5b8235905067ffffffffffffffff81111561068957600080fd5b6020830191508360018202830111156106a157600080fd5b9250929050565b600082601f8301126106b957600080fd5b81356106cc6106c782610dba565b610d8d565b915080825260208301602083018583830111156106e857600080fd5b6106f3838284610ea8565b50505092915050565b60008083601f84011261070e57600080fd5b8235905067ffffffffffffffff81111561072757600080fd5b60208301915083600182028301111561073f57600080fd5b9250929050565b600082601f83011261075757600080fd5b813561076a61076582610de6565b610d8d565b9150808252602083016020830185838301111561078657600080fd5b610791838284610ea8565b50505092915050565b6000813590506107a981610f33565b92915050565b6000815190506107be81610f4a565b92915050565b6000806000604084860312156107d957600080fd5b60006107e786828701610634565b935050602084013567ffffffffffffffff81111561080457600080fd5b610810868287016106fc565b92509250509250925092565b60008060006060848603121561083157600080fd5b600061083f86828701610649565b935050602061085086828701610649565b9250506040610861868287016107af565b9150509250925092565b6000806000806040858703121561088157600080fd5b600085013567ffffffffffffffff81111561089b57600080fd5b6108a78782880161065e565b9450945050602085013567ffffffffffffffff8111156108c657600080fd5b6108d28782880161065e565b925092505092959194509250565b600080604083850312156108f357600080fd5b600083013567ffffffffffffffff81111561090d57600080fd5b610919858286016106a8565b925050602083013567ffffffffffffffff81111561093657600080fd5b610942858286016106a8565b9150509250929050565b6000806000806080858703121561096257600080fd5b600085013567ffffffffffffffff81111561097c57600080fd5b61098887828801610746565b94505060206109998782880161079a565b935050604085013567ffffffffffffffff8111156109b657600080fd5b6109c287828801610746565b92505060606109d38782880161079a565b91505092959194509250565b6109e881610e39565b82525050565b6109f781610e4b565b82525050565b610a0e610a0982610e4b565b610eea565b82525050565b6000610a208385610e2e565b9350610a2d838584610ea8565b82840190509392505050565b6000610a4482610e12565b610a4e8185610e1d565b9350610a5e818560208601610eb7565b610a6781610ef4565b840191505092915050565b6000610a7d82610e12565b610a878185610e2e565b9350610a97818560208601610eb7565b80840191505092915050565b6000610ab0601c83610e2e565b91507f19457468657265756d205369676e6564204d6573736167653a0a3332000000006000830152601c82019050919050565b6000610af0600e83610e1d565b91507f6f6666636861696e2070726963650000000000000000000000000000000000006000830152602082019050919050565b6000610b30601d83610e1d565b91507f4b696e64206f662064617461206d7573742062652027707269636573270000006000830152602082019050919050565b6000610b70600683610e2e565b91507f70726963657300000000000000000000000000000000000000000000000000006000830152600682019050919050565b610bac81610e96565b82525050565b610bbb81610e75565b82525050565b610bca81610e89565b82525050565b6000610bdd828486610a14565b91508190509392505050565b6000610bf58284610a72565b915081905092915050565b6000610c0b82610aa3565b9150610c1782846109fd565b60208201915081905092915050565b6000610c3182610b63565b9150819050919050565b6000602082019050610c5060008301846109df565b92915050565b6000608082019050610c6b60008301876109ee565b610c786020830186610bc1565b610c8560408301856109ee565b610c9260608301846109ee565b95945050505050565b60006020820190508181036000830152610cb58184610a39565b905092915050565b60006060820190508181036000830152610cd78186610a39565b9050610ce66020830185610bb2565b610cf36040830184610bb2565b949350505050565b60006040820190508181036000830152610d1481610ae3565b9050610d236020830184610ba3565b92915050565b60006020820190508181036000830152610d4281610b23565b9050919050565b6000602082019050610d5e6000830184610bb2565b92915050565b6000604082019050610d796000830185610bb2565b610d866020830184610bb2565b9392505050565b6000604051905081810181811067ffffffffffffffff82111715610db057600080fd5b8060405250919050565b600067ffffffffffffffff821115610dd157600080fd5b601f19601f8301169050602081019050919050565b600067ffffffffffffffff821115610dfd57600080fd5b601f19601f8301169050602081019050919050565b600081519050919050565b600082825260208201905092915050565b600081905092915050565b6000610e4482610e55565b9050919050565b6000819050919050565b600073ffffffffffffffffffffffffffffffffffffffff82169050919050565b600067ffffffffffffffff82169050919050565b600060ff82169050919050565b6000610ea182610e75565b9050919050565b82818337600083830152505050565b60005b83811015610ed5578082015181840152602081019050610eba565b83811115610ee4576000848401525b50505050565b6000819050919050565b6000601f19601f8301169050919050565b610f0e81610e39565b8114610f1957600080fd5b50565b610f2581610e4b565b8114610f3057600080fd5b50565b610f3c81610e75565b8114610f4757600080fd5b50565b610f5381610e89565b8114610f5e57600080fd5b5056fea265627a7a723058201ef91495c873ba58546c90645b664a973e1ff1be833274c4fd746a0cc93967446c6578706572696d656e74616cf50037",
  "source": "pragma solidity ^0.5.0;\r\npragma experimental ABIEncoderV2;\r\n\r\nimport \"./OpenOracleData.sol\";\r\n\r\n/**\r\n * @title The Open Oracle Price Data Contract\r\n * @notice Values stored in this contract should represent a USD price with 6 decimals precision\r\n * @author Compound Labs, Inc.\r\n */\r\ncontract OpenOraclePriceData is OpenOracleData {\r\n    /**\r\n     * @notice The event emitted when a source writes to its storage\r\n     */\r\n    event Write(address indexed source, string key, uint64 timestamp, uint64 value);\r\n    event Print(string _s, uint _n);\r\n    /**\r\n     * @notice The fundamental unit of storage for a reporter source\r\n     */\r\n    struct Datum {\r\n        uint64 timestamp;\r\n        uint64 value;\r\n    }\r\n\r\n    /**\r\n     * @notice The most recent authenticated data from all sources\r\n     * @dev This is private because dynamic mapping keys preclude auto-generated getters.\r\n     */\r\n    mapping(address => mapping(string => Datum)) private data;\r\n\r\n    /**\r\n     * @notice Write a bunch of signed datum to the authenticated storage mapping\r\n     * @param message The payload containing the timestamp, and (key, value) pairs\r\n     * @param signature The cryptographic signature of the message payload, authorizing the source to write\r\n     * @return The keys that were written\r\n     */\r\n    function put(bytes calldata message, bytes calldata signature) external returns (string memory) {\r\n        // Recover the source address\r\n        address source = source(message, signature);\r\n\r\n        // Decode the message and check the kind\r\n        (string memory kind, uint64 timestamp, string memory key, uint64 value) = abi.decode(message, (string, uint64, string, uint64));\r\n        emit Print(\"offchain price\",value);\r\n        require(keccak256(abi.encodePacked(kind)) == keccak256(abi.encodePacked(\"prices\")), \"Kind of data must be 'prices'\");\r\n\r\n        // Only update if newer than stored, according to source\r\n        Datum storage prior = data[source][key];\r\n        if (prior.timestamp < timestamp) {\r\n            data[source][key] = Datum(timestamp, value);\r\n            emit Write(source, key, timestamp, value);\r\n        }\r\n        return key;\r\n    }\r\n\r\n    /**\r\n     * @notice Read a single key from an authenticated source\r\n     * @param source The verifiable author of the data\r\n     * @param key The selector for the value to return\r\n     * @return The claimed Unix timestamp for the data and the price value (defaults to (0, 0))\r\n     */\r\n    function get(address source, string calldata key) external view returns (uint64, uint64) {\r\n        Datum storage datum = data[source][key];\r\n        return (datum.timestamp, datum.value);\r\n    }\r\n\r\n    /**\r\n     * @notice Read only the value for a single key from an authenticated source\r\n     * @param source The verifiable author of the data\r\n     * @param key The selector for the value to return\r\n     * @return The price value (defaults to 0)\r\n     */\r\n    function getPrice(address source, string calldata key) external view returns (uint64) {\r\n        return data[source][key].value;\r\n    }\r\n}\r\n",
  "sourcePath": "C:\\company\\code\\open-oracle\\contracts\\OpenOraclePriceData.sol",
  "compiler": {
    "name": "solc",
    "version": "0.5.8+commit.23d335f2.Emscripten.clang"
  },
  "schemaVersion": "3.0.16",
  "updatedAt": "2019-10-21T15:07:02.571Z",
  "devdoc": {
    "author": "Compound Labs, Inc.\r",
    "methods": {
      "get(address,string)": {
        "params": {
          "key": "The selector for the value to return\r",
          "source": "The verifiable author of the data\r"
        },
        "return": "The claimed Unix timestamp for the data and the price value (defaults to (0, 0))\r"
      },
      "getPrice(address,string)": {
        "params": {
          "key": "The selector for the value to return\r",
          "source": "The verifiable author of the data\r"
        },
        "return": "The price value (defaults to 0)\r"
      },
      "put(bytes,bytes)": {
        "params": {
          "message": "The payload containing the timestamp, and (key, value) pairs\r",
          "signature": "The cryptographic signature of the message payload, authorizing the source to write\r"
        },
        "return": "The keys that were written\r"
      },
      "source(bytes,bytes)": {
        "details": "Comparing to a claimed address would add nothing,\r as the caller could simply perform the recover and claim that address.\r",
        "params": {
          "message": "The data that was presumably signed\r",
          "signature": "The fingerprint of the data + private key\r"
        },
        "return": "The source address which signed the message, presumably\r"
      }
    },
    "title": "The Open Oracle Price Data Contract\r"
  },
  "userdoc": {
    "methods": {
      "get(address,string)": {
        "notice": "Read a single key from an authenticated source\r"
      },
      "getPrice(address,string)": {
        "notice": "Read only the value for a single key from an authenticated source\r"
      },
      "put(bytes,bytes)": {
        "notice": "Write a bunch of signed datum to the authenticated storage mapping\r"
      },
      "source(bytes,bytes)": {
        "notice": "Recovers the source address which signed a message\r"
      }
    },
    "notice": "Values stored in this contract should represent a USD price with 6 decimals precision\r"
  }
}