{
  "contractName": "TestContract",
  "abi": [
    {
      "constant": true,
      "inputs": [],
      "name": "endValue",
      "outputs": [
        {
          "name": "",
          "type": "uint64"
        }
      ],
      "payable": false,
      "stateMutability": "view",
      "type": "function"
    },
    {
      "constant": true,
      "inputs": [],
      "name": "viewAddress",
      "outputs": [
        {
          "name": "",
          "type": "address"
        }
      ],
      "payable": false,
      "stateMutability": "view",
      "type": "function"
    },
    {
      "constant": true,
      "inputs": [],
      "name": "endDateTime",
      "outputs": [
        {
          "name": "",
          "type": "uint256"
        }
      ],
      "payable": false,
      "stateMutability": "view",
      "type": "function"
    },
    {
      "constant": true,
      "inputs": [],
      "name": "startValue",
      "outputs": [
        {
          "name": "",
          "type": "uint64"
        }
      ],
      "payable": false,
      "stateMutability": "view",
      "type": "function"
    },
    {
      "constant": true,
      "inputs": [],
      "name": "startDateTime",
      "outputs": [
        {
          "name": "",
          "type": "uint256"
        }
      ],
      "payable": false,
      "stateMutability": "view",
      "type": "function"
    },
    {
      "constant": true,
      "inputs": [],
      "name": "contractEnded",
      "outputs": [
        {
          "name": "",
          "type": "bool"
        }
      ],
      "payable": false,
      "stateMutability": "view",
      "type": "function"
    },
    {
      "constant": true,
      "inputs": [],
      "name": "symbol",
      "outputs": [
        {
          "name": "",
          "type": "string"
        }
      ],
      "payable": false,
      "stateMutability": "view",
      "type": "function"
    },
    {
      "constant": true,
      "inputs": [],
      "name": "origAddress",
      "outputs": [
        {
          "name": "",
          "type": "address"
        }
      ],
      "payable": false,
      "stateMutability": "view",
      "type": "function"
    },
    {
      "constant": true,
      "inputs": [],
      "name": "longWins",
      "outputs": [
        {
          "name": "",
          "type": "bool"
        }
      ],
      "payable": false,
      "stateMutability": "view",
      "type": "function"
    },
    {
      "inputs": [
        {
          "name": "_symbol",
          "type": "string"
        }
      ],
      "payable": false,
      "stateMutability": "nonpayable",
      "type": "constructor"
    },
    {
      "anonymous": false,
      "inputs": [
        {
          "indexed": false,
          "name": "_svalue",
          "type": "uint64"
        },
        {
          "indexed": false,
          "name": "_evalue",
          "type": "uint64"
        }
      ],
      "name": "ContractSettled",
      "type": "event"
    },
    {
      "constant": false,
      "inputs": [
        {
          "name": "_viewContract",
          "type": "address"
        }
      ],
      "name": "setViewContract",
      "outputs": [],
      "payable": false,
      "stateMutability": "nonpayable",
      "type": "function"
    },
    {
      "constant": false,
      "inputs": [
        {
          "name": "_duration",
          "type": "uint256"
        }
      ],
      "name": "startContract",
      "outputs": [],
      "payable": false,
      "stateMutability": "nonpayable",
      "type": "function"
    },
    {
      "constant": false,
      "inputs": [],
      "name": "settleContracts",
      "outputs": [],
      "payable": false,
      "stateMutability": "nonpayable",
      "type": "function"
    }
  ],
  "bytecode": "0x608060405234801561001057600080fd5b50604051610a7d380380610a7d8339810180604052602081101561003357600080fd5b81019080805164010000000081111561004b57600080fd5b8281019050602081018481111561006157600080fd5b815185600182028301116401000000008211171561007e57600080fd5b5050929190505050806006908051906020019061009c9291906100a3565b5050610148565b828054600181600116156101000203166002900490600052602060002090601f016020900481019282601f106100e457805160ff1916838001178555610112565b82800160010185558215610112579182015b828111156101115782518255916020019190600101906100f6565b5b50905061011f9190610123565b5090565b61014591905b80821115610141576000816000905550600101610129565b5090565b90565b610926806101576000396000f3fe608060405234801561001057600080fd5b50600436106100b45760003560e01c806381a219de1161007157806381a219de146101e7578063871058011461021557806391bf116f1461021f57806395d89b4114610241578063b59fa707146102c4578063bad4d21e1461030e576100b4565b806316e72abb146100b957806318b04c8a146100eb5780633c9177cd146101355780633f35ff3214610153578063775f75df146101855780637f6330a1146101a3575b600080fd5b6100c1610330565b604051808267ffffffffffffffff1667ffffffffffffffff16815260200191505060405180910390f35b6100f361034a565b604051808273ffffffffffffffffffffffffffffffffffffffff1673ffffffffffffffffffffffffffffffffffffffff16815260200191505060405180910390f35b61013d610370565b6040518082815260200191505060405180910390f35b61015b610376565b604051808267ffffffffffffffff1667ffffffffffffffff16815260200191505060405180910390f35b61018d610390565b6040518082815260200191505060405180910390f35b6101e5600480360360208110156101b957600080fd5b81019080803573ffffffffffffffffffffffffffffffffffffffff169060200190929190505050610396565b005b610213600480360360208110156101fd57600080fd5b810190808035906020019092919050505061041b565b005b61021d610597565b005b610227610811565b604051808215151515815260200191505060405180910390f35b610249610824565b6040518080602001828103825283818151815260200191508051906020019080838360005b8381101561028957808201518184015260208101905061026e565b50505050905090810190601f1680156102b65780820380516001836020036101000a031916815260200191505b509250505060405180910390f35b6102cc6108c2565b604051808273ffffffffffffffffffffffffffffffffffffffff1673ffffffffffffffffffffffffffffffffffffffff16815260200191505060405180910390f35b6103166108e8565b604051808215151515815260200191505060405180910390f35b600360089054906101000a900467ffffffffffffffff1681565b600460009054906101000a900473ffffffffffffffffffffffffffffffffffffffff1681565b60025481565b600360009054906101000a900467ffffffffffffffff1681565b60015481565b80600760006101000a81548173ffffffffffffffffffffffffffffffffffffffff021916908373ffffffffffffffffffffffffffffffffffffffff16021790555080600460006101000a81548173ffffffffffffffffffffffffffffffffffffffff021916908373ffffffffffffffffffffffffffffffffffffffff16021790555050565b62015180428161042757fe5b0642036001819055508060015401600281905550600760009054906101000a900473ffffffffffffffffffffffffffffffffffffffff1673ffffffffffffffffffffffffffffffffffffffff1663524f388960066040518263ffffffff1660e01b815260040180806020018281038252838181546001816001161561010002031660029004815260200191508054600181600116156101000203166002900480156105135780601f106104e857610100808354040283529160200191610513565b820191906000526020600020905b8154815290600101906020018083116104f657829003601f168201915b50509250505060206040518083038186803b15801561053157600080fd5b505afa158015610545573d6000803e3d6000fd5b505050506040513d602081101561055b57600080fd5b8101908080519060200190929190505050600360006101000a81548167ffffffffffffffff021916908367ffffffffffffffff16021790555050565b60025442116105a557600080fd5b600760009054906101000a900473ffffffffffffffffffffffffffffffffffffffff1673ffffffffffffffffffffffffffffffffffffffff1663524f388960066040518263ffffffff1660e01b8152600401808060200182810382528381815460018160011615610100020316600290048152602001915080546001816001161561010002031660029004801561067d5780601f106106525761010080835404028352916020019161067d565b820191906000526020600020905b81548152906001019060200180831161066057829003601f168201915b50509250505060206040518083038186803b15801561069b57600080fd5b505afa1580156106af573d6000803e3d6000fd5b505050506040513d60208110156106c557600080fd5b8101908080519060200190929190505050600360086101000a81548167ffffffffffffffff021916908367ffffffffffffffff160217905550600360009054906101000a900467ffffffffffffffff1667ffffffffffffffff16600360089054906101000a900467ffffffffffffffff1667ffffffffffffffff1611156107615760016000806101000a81548160ff0219169083151502179055505b6001600060016101000a81548160ff0219169083151502179055507fdea89f8a21e059f0317e2227974455a9a09ef6378e0dc01c280343cf7675f073600360009054906101000a900467ffffffffffffffff16600360089054906101000a900467ffffffffffffffff16604051808367ffffffffffffffff1667ffffffffffffffff1681526020018267ffffffffffffffff1667ffffffffffffffff1681526020019250505060405180910390a1565b600060019054906101000a900460ff1681565b60068054600181600116156101000203166002900480601f0160208091040260200160405190810160405280929190818152602001828054600181600116156101000203166002900480156108ba5780601f1061088f576101008083540402835291602001916108ba565b820191906000526020600020905b81548152906001019060200180831161089d57829003601f168201915b505050505081565b600560009054906101000a900473ffffffffffffffffffffffffffffffffffffffff1681565b6000809054906101000a900460ff168156fea165627a7a72305820a09b6f1ec99dd8f851db3f08834b69e4d0355e55bd4a624ef5e089a37efa45ae0029",
  "source": "pragma solidity ^0.5.0;\r\n\r\nimport './DelFiPriceWithOnchainData.sol';\r\nimport './DelFiPrice.sol';\r\n/**\r\n* @title Reader\r\n* This contracts is a pretend contract using Tellor that compares two time values\r\n*/\r\ncontract TestContract{\r\n    \r\n    /*Variables*/\r\n\tbool public longWins;\r\n\tbool public contractEnded;\r\n\tuint public startDateTime;\r\n\tuint public endDateTime;\r\n\tuint64 public startValue;\r\n\tuint64 public endValue;\r\n    address public viewAddress;\r\n    address public origAddress;\r\n\tstring public symbol;\r\n\t\t\r\n\tDelFiPriceWithOnchainData viewContract;\r\n\r\n    /*Events*/\r\n    event ContractSettled(uint64 _svalue, uint64 _evalue);\r\n\r\n    /*Constructor*/\r\n    /**\r\n    * @notice Set the symbol used by the test contract\r\n    * @param _symbol is the price symbol such as 'ETH/USD' etc...\r\n    */\r\n\tconstructor(string memory _symbol) public {\r\n\t\tsymbol = _symbol;\r\n\t}\r\n\r\n    /*Functions*/\r\n    /**\r\n     * @notice Sets the  DelFiPriceWIthOnChainData(viewContract)\r\n     * @param _viewContract is the address for Compounds DelFiPriceWithOnChainData contract\r\n     */\r\n\tfunction setViewContract(address _viewContract) public {\r\n\t\tviewContract = DelFiPriceWithOnchainData(_viewContract);\r\n\t\tviewAddress = _viewContract;\r\n\t}\r\n\r\n    /**\r\n     * @notice Creates a start(now) and end time(now + duration specified) for testing a contract start and end period\r\n     * @param _duration of the contract in seconds\r\n     */\r\n\tfunction startContract(uint _duration) external {\r\n\t\tstartDateTime = now - (now % 1 days);//test failing so added rounding to the day...\r\n\t\tendDateTime = startDateTime + _duration;\r\n\t\tstartValue = viewContract.getPrice(symbol);\r\n\t}\r\n\r\n\r\n\t/**\r\n     * @notice Testing function that settles the contract by getting the first undisputed value after the startDateTime\r\n     * and the first undisputed value after the end time of the contract and settleling(payin off) it.\r\n\t */\r\n\tfunction settleContracts() external{\r\n\t\trequire(now > endDateTime);\r\n\t\tendValue = viewContract.getPrice(symbol);\r\n\t\tif(endValue > startValue){\r\n\t\t\tlongWins = true;\r\n\t\t}\r\n\t\tcontractEnded = true;\r\n\t\temit ContractSettled(startValue, endValue);\r\n\t}\r\n\r\n}",
  "sourcePath": "C:/users/lloya/documents/dda/1tellor/tellor/projects/open-oracle/contracts/TestContract.sol",
  "compiler": {
    "name": "solc",
    "version": "0.5.8+commit.23d335f2.Emscripten.clang"
  },
  "schemaVersion": "3.0.11",
  "updatedAt": "2019-11-06T20:12:17.638Z",
  "devdoc": {
    "methods": {
      "constructor": {
        "params": {
          "_symbol": "is the price symbol such as 'ETH/USD' etc...\r"
        }
      },
      "setViewContract(address)": {
        "params": {
          "_viewContract": "is the address for Compounds DelFiPriceWithOnChainData contract\r"
        }
      },
      "startContract(uint256)": {
        "params": {
          "_duration": "of the contract in seconds\r"
        }
      }
    },
    "title": "Reader\r This contracts is a pretend contract using Tellor that compares two time values\r"
  },
  "userdoc": {
    "methods": {
      "constructor": "Set the symbol used by the test contract\r",
      "setViewContract(address)": {
        "notice": "Sets the  DelFiPriceWIthOnChainData(viewContract)\r"
      },
      "settleContracts()": {
        "notice": "Testing function that settles the contract by getting the first undisputed value after the startDateTime\r and the first undisputed value after the end time of the contract and settleling(payin off) it.\r"
      },
      "startContract(uint256)": {
        "notice": "Creates a start(now) and end time(now + duration specified) for testing a contract start and end period\r"
      }
    }
  }
}