{
  "contractName": "TestContract",
  "abi": [
    {
      "constant": true,
      "inputs": [],
      "name": "endValue",
      "outputs": [
        {
          "name": "",
          "type": "uint64"
        }
      ],
      "payable": false,
      "stateMutability": "view",
      "type": "function"
    },
    {
      "constant": true,
      "inputs": [],
      "name": "viewAddress",
      "outputs": [
        {
          "name": "",
          "type": "address"
        }
      ],
      "payable": false,
      "stateMutability": "view",
      "type": "function"
    },
    {
      "constant": true,
      "inputs": [],
      "name": "endDateTime",
      "outputs": [
        {
          "name": "",
          "type": "uint256"
        }
      ],
      "payable": false,
      "stateMutability": "view",
      "type": "function"
    },
    {
      "constant": true,
      "inputs": [],
      "name": "startValue",
      "outputs": [
        {
          "name": "",
          "type": "uint64"
        }
      ],
      "payable": false,
      "stateMutability": "view",
      "type": "function"
    },
    {
      "constant": true,
      "inputs": [],
      "name": "startDateTime",
      "outputs": [
        {
          "name": "",
          "type": "uint256"
        }
      ],
      "payable": false,
      "stateMutability": "view",
      "type": "function"
    },
    {
      "constant": true,
      "inputs": [],
      "name": "contractEnded",
      "outputs": [
        {
          "name": "",
          "type": "bool"
        }
      ],
      "payable": false,
      "stateMutability": "view",
      "type": "function"
    },
    {
      "constant": true,
      "inputs": [],
      "name": "symbol",
      "outputs": [
        {
          "name": "",
          "type": "string"
        }
      ],
      "payable": false,
      "stateMutability": "view",
      "type": "function"
    },
    {
      "constant": true,
      "inputs": [],
      "name": "origAddress",
      "outputs": [
        {
          "name": "",
          "type": "address"
        }
      ],
      "payable": false,
      "stateMutability": "view",
      "type": "function"
    },
    {
      "constant": true,
      "inputs": [],
      "name": "longWins",
      "outputs": [
        {
          "name": "",
          "type": "bool"
        }
      ],
      "payable": false,
      "stateMutability": "view",
      "type": "function"
    },
    {
      "inputs": [
        {
          "name": "_symbol",
          "type": "string"
        }
      ],
      "payable": false,
      "stateMutability": "nonpayable",
      "type": "constructor"
    },
    {
      "anonymous": false,
      "inputs": [
        {
          "indexed": false,
          "name": "_svalue",
          "type": "uint64"
        },
        {
          "indexed": false,
          "name": "_evalue",
          "type": "uint64"
        }
      ],
      "name": "ContractSettled",
      "type": "event"
    },
    {
      "anonymous": false,
      "inputs": [
        {
          "indexed": false,
          "name": "_desc",
          "type": "string"
        },
        {
          "indexed": false,
          "name": "_val",
          "type": "uint256"
        }
      ],
      "name": "print",
      "type": "event"
    },
    {
      "constant": false,
      "inputs": [
        {
          "name": "_viewContract",
          "type": "address"
        },
        {
          "name": "_origContract",
          "type": "address"
        }
      ],
      "name": "setViewContract",
      "outputs": [],
      "payable": false,
      "stateMutability": "nonpayable",
      "type": "function"
    },
    {
      "constant": false,
      "inputs": [
        {
          "name": "_duration",
          "type": "uint256"
        }
      ],
      "name": "startContract",
      "outputs": [],
      "payable": false,
      "stateMutability": "nonpayable",
      "type": "function"
    },
    {
      "constant": false,
      "inputs": [],
      "name": "settleContracts",
      "outputs": [],
      "payable": false,
      "stateMutability": "nonpayable",
      "type": "function"
    }
  ],
  "bytecode": "0x608060405234801561001057600080fd5b50604051610c08380380610c088339810180604052602081101561003357600080fd5b81019080805164010000000081111561004b57600080fd5b8281019050602081018481111561006157600080fd5b815185600182028301116401000000008211171561007e57600080fd5b5050929190505050806006908051906020019061009c9291906100a3565b5050610148565b828054600181600116156101000203166002900490600052602060002090601f016020900481019282601f106100e457805160ff1916838001178555610112565b82800160010185558215610112579182015b828111156101115782518255916020019190600101906100f6565b5b50905061011f9190610123565b5090565b61014591905b80821115610141576000816000905550600101610129565b5090565b90565b610ab1806101576000396000f3fe608060405234801561001057600080fd5b50600436106100b45760003560e01c806381a219de1161007157806381a219de14610207578063871058011461023557806391bf116f1461023f57806395d89b4114610261578063b59fa707146102e4578063bad4d21e1461032e576100b4565b806316e72abb146100b957806318b04c8a146100eb5780633c9177cd146101355780633f35ff32146101535780636856bbb114610185578063775f75df146101e9575b600080fd5b6100c1610350565b604051808267ffffffffffffffff1667ffffffffffffffff16815260200191505060405180910390f35b6100f361036a565b604051808273ffffffffffffffffffffffffffffffffffffffff1673ffffffffffffffffffffffffffffffffffffffff16815260200191505060405180910390f35b61013d610390565b6040518082815260200191505060405180910390f35b61015b610396565b604051808267ffffffffffffffff1667ffffffffffffffff16815260200191505060405180910390f35b6101e76004803603604081101561019b57600080fd5b81019080803573ffffffffffffffffffffffffffffffffffffffff169060200190929190803573ffffffffffffffffffffffffffffffffffffffff1690602001909291905050506103b0565b005b6101f16104b8565b6040518082815260200191505060405180910390f35b6102336004803603602081101561021d57600080fd5b81019080803590602001909291905050506104be565b005b61023d610720565b005b61024761099c565b604051808215151515815260200191505060405180910390f35b6102696109af565b6040518080602001828103825283818151815260200191508051906020019080838360005b838110156102a957808201518184015260208101905061028e565b50505050905090810190601f1680156102d65780820380516001836020036101000a031916815260200191505b509250505060405180910390f35b6102ec610a4d565b604051808273ffffffffffffffffffffffffffffffffffffffff1673ffffffffffffffffffffffffffffffffffffffff16815260200191505060405180910390f35b610336610a73565b604051808215151515815260200191505060405180910390f35b600360089054906101000a900467ffffffffffffffff1681565b600460009054906101000a900473ffffffffffffffffffffffffffffffffffffffff1681565b60025481565b600360009054906101000a900467ffffffffffffffff1681565b81600760006101000a81548173ffffffffffffffffffffffffffffffffffffffff021916908373ffffffffffffffffffffffffffffffffffffffff16021790555081600460006101000a81548173ffffffffffffffffffffffffffffffffffffffff021916908373ffffffffffffffffffffffffffffffffffffffff16021790555080600860006101000a81548173ffffffffffffffffffffffffffffffffffffffff021916908373ffffffffffffffffffffffffffffffffffffffff16021790555080600560006101000a81548173ffffffffffffffffffffffffffffffffffffffff021916908373ffffffffffffffffffffffffffffffffffffffff1602179055505050565b60015481565b6201518042816104ca57fe5b0642036001819055507fdfa505979ef93c7802008e99d18a0042a4efcb721be461191486439f86c803126001546040518080602001838152602001828103825260058152602001807f73746172740000000000000000000000000000000000000000000000000000008152506020019250505060405180910390a180600154016002819055507fdfa505979ef93c7802008e99d18a0042a4efcb721be461191486439f86c803126002546040518080602001838152602001828103825260038152602001807f656e6400000000000000000000000000000000000000000000000000000000008152506020019250505060405180910390a1600760009054906101000a900473ffffffffffffffffffffffffffffffffffffffff1673ffffffffffffffffffffffffffffffffffffffff1663524f388960066040518263ffffffff1660e01b8152600401808060200182810382528381815460018160011615610100020316600290048152602001915080546001816001161561010002031660029004801561069a5780601f1061066f5761010080835404028352916020019161069a565b820191906000526020600020905b81548152906001019060200180831161067d57829003601f168201915b505092505050602060405180830381600087803b1580156106ba57600080fd5b505af11580156106ce573d6000803e3d6000fd5b505050506040513d60208110156106e457600080fd5b8101908080519060200190929190505050600360006101000a81548167ffffffffffffffff021916908367ffffffffffffffff16021790555050565b600254421161072e57600080fd5b600760009054906101000a900473ffffffffffffffffffffffffffffffffffffffff1673ffffffffffffffffffffffffffffffffffffffff1663524f388960066040518263ffffffff1660e01b815260040180806020018281038252838181546001816001161561010002031660029004815260200191508054600181600116156101000203166002900480156108065780601f106107db57610100808354040283529160200191610806565b820191906000526020600020905b8154815290600101906020018083116107e957829003601f168201915b505092505050602060405180830381600087803b15801561082657600080fd5b505af115801561083a573d6000803e3d6000fd5b505050506040513d602081101561085057600080fd5b8101908080519060200190929190505050600360086101000a81548167ffffffffffffffff021916908367ffffffffffffffff160217905550600360009054906101000a900467ffffffffffffffff1667ffffffffffffffff16600360089054906101000a900467ffffffffffffffff1667ffffffffffffffff1611156108ec5760016000806101000a81548160ff0219169083151502179055505b6001600060016101000a81548160ff0219169083151502179055507fdea89f8a21e059f0317e2227974455a9a09ef6378e0dc01c280343cf7675f073600360009054906101000a900467ffffffffffffffff16600360089054906101000a900467ffffffffffffffff16604051808367ffffffffffffffff1667ffffffffffffffff1681526020018267ffffffffffffffff1667ffffffffffffffff1681526020019250505060405180910390a1565b600060019054906101000a900460ff1681565b60068054600181600116156101000203166002900480601f016020809104026020016040519081016040528092919081815260200182805460018160011615610100020316600290048015610a455780601f10610a1a57610100808354040283529160200191610a45565b820191906000526020600020905b815481529060010190602001808311610a2857829003601f168201915b505050505081565b600560009054906101000a900473ffffffffffffffffffffffffffffffffffffffff1681565b6000809054906101000a900460ff168156fea165627a7a72305820d474c3290245ffd5703cf4a3b457709ed6a07e57f12f187c168ad19bbd9f20b30029",
  "source": "pragma solidity ^0.5.0;\r\n\r\nimport './DelFiPriceWithOnchainData.sol';\r\nimport './DelFiPrice.sol';\r\n/**\r\n* @title Reader\r\n* This contracts is a pretend contract using Tellor that compares two time values\r\n*/\r\ncontract TestContract{\r\n    \r\n    /*Variables*/\r\n\tbool public longWins;\r\n\tbool public contractEnded;\r\n\tuint public startDateTime;\r\n\tuint public endDateTime;\r\n\tuint64 public startValue;\r\n\tuint64 public endValue;\r\n    address public viewAddress;\r\n    address public origAddress;\r\n\tstring public symbol;\r\n\t\t\r\n\tDelFiPriceWithOnchainData viewContract;\r\n\tDelFiPrice origContract;\r\n\r\n    /*Events*/\r\n    event ContractSettled(uint64 _svalue, uint64 _evalue);\r\n\r\n    /*Constructor*/\r\n    /**\r\n    * @dev set the symbol used by the test contract\r\n    * @param _symbol is the price symbol such as 'ETH/USD' etc...\r\n    */\r\n\tconstructor(string memory _symbol) public {\r\n\t\tsymbol = _symbol;\r\n\t}\r\n\r\n    /*Functions*/\r\n    /**\r\n     * @dev sets the  DelFiPriceWIthOnChainData(viewContract)\r\n     * @param _viewContract is the address for Compounds DelFiPriceWithOnChainData contract\r\n     * @param _origContract is the address of Compounds original(no onChainData) DelFiPrice contract\r\n     */\r\n\tfunction setViewContract(address _viewContract, address _origContract) public {\r\n\t\tviewContract = DelFiPriceWithOnchainData(_viewContract);\r\n\t\tviewAddress = _viewContract;\r\n\t\torigContract = DelFiPrice(_origContract);\r\n\t\torigAddress = _origContract;\r\n\t}\r\n\r\n    event print(string _desc, uint _val);\r\n    /**\r\n     * @dev creates a start(now) and end time(now + duration specified) for testing a contract start and end period\r\n     * @param _duration of the contract in seconds\r\n     */\r\n\tfunction startContract(uint _duration) external {\r\n\t\tstartDateTime = now - (now % 1 days);//test failing so added rounding to the day...\r\n\t\temit print(\"start\", startDateTime);\r\n\t\tendDateTime = startDateTime + _duration;\r\n\t\temit print(\"end\", endDateTime);\r\n\t\tstartValue = viewContract.getPrice(symbol);\r\n\t}\r\n\r\n\r\n\t/**\r\n     * @dev testing function that settles the contract by getting the first undisputed value after the startDateTime\r\n     * and the first undisputed value after the end time of the contract and settleling(payin off) it.\r\n\t */\r\n\tfunction settleContracts() external{\r\n\t\trequire(now > endDateTime);\r\n\t\tendValue = viewContract.getPrice(symbol);\r\n\t\tif(endValue > startValue){\r\n\t\t\tlongWins = true;\r\n\t\t}\r\n\t\tcontractEnded = true;\r\n\t\temit ContractSettled(startValue, endValue);\r\n\t}\r\n\r\n\t//add function to settle with original compound DelFiPrice meaning without on-chain component\r\n}",
  "sourcePath": "C:/company/code/open-oracle/contracts/TestContract.sol",
  "compiler": {
    "name": "solc",
    "version": "0.5.8+commit.23d335f2.Emscripten.clang"
  },
  "schemaVersion": "3.0.16",
  "updatedAt": "2019-11-05T21:45:01.443Z",
  "devdoc": {
    "methods": {
      "constructor": {
        "details": "set the symbol used by the test contract\r",
        "params": {
          "_symbol": "is the price symbol such as 'ETH/USD' etc...\r"
        }
      },
      "setViewContract(address,address)": {
        "details": "sets the  DelFiPriceWIthOnChainData(viewContract)\r",
        "params": {
          "_origContract": "is the address of Compounds original(no onChainData) DelFiPrice contract\r",
          "_viewContract": "is the address for Compounds DelFiPriceWithOnChainData contract\r"
        }
      },
      "settleContracts()": {
        "details": "testing function that settles the contract by getting the first undisputed value after the startDateTime\r and the first undisputed value after the end time of the contract and settleling(payin off) it.\r"
      },
      "startContract(uint256)": {
        "details": "creates a start(now) and end time(now + duration specified) for testing a contract start and end period\r",
        "params": {
          "_duration": "of the contract in seconds\r"
        }
      }
    },
    "title": "Reader\r This contracts is a pretend contract using Tellor that compares two time values\r"
  },
  "userdoc": {
    "methods": {}
  }
}